:10000000F07F001047010100090101000B01010010
:100010000D0101000F010100110101008879F9EFC4
:1000200000000000000000000000000013010100BB
:100030001501010000000000170101006118010016
:100040001B0101001B0101001B0101001B0101003C
:100050001B0101001B0101001B0101001B0101002C
:100060001B0101001B0101001B0101001B0101001C
:100070001B0101001B0101001B0101001B0101000C
:100080001B010100191801001B0101005D13010093
:1000900089110100651601001B0101001B0101000F
:1000A000790401001B0101001B0101001B0101007B
:1000B0001B0101001B0101001B0101001B010100CC
:1000C0001B0101001B0101001B01010090650100E3
:1000D00000010010A002000090650100F07F0010F8
:1000E000000000009065010000C007200000000033
:1000F000A003001078030000F07F00100000000053
:1001000000C0072000000000FEE7FEE7FEE7FEE774
:10011000FEE7FEE7FEE7FEE7FEE7FEE70B4610B56B
:10012000401A5C1AA24203D9C45843F8044BF8E7BA
:1001300010BD034610B500241A1A914202D943F8A3
:10014000044BF9E710BD38B50D4C0E4DAC4207D24B
:1001500094E803000C3454F8042CFFF7DFFFF5E7B4
:10016000094DAC4206D254F8080B54F8041CFFF7B2
:10017000E0FFF6E701F098FE03F076FAFEE700BF35
:10018000CC000100F000010008010100032A05D1A4
:100190000B8A23F001031B041B0C0B820020704709
:1001A000024B4FF480721A8200207047380500100D
:1001B000022A38B50C4602D0042A26D037E01D4B5F
:1001C0008A681B6801211B685B6C9847638A80B250
:1001D00013F0040FE081638A0AD023F004031B04A8
:1001E0001B0C638218B3638A9BB243F002031DE0C9
:1001F0001B071CD5638A23F008031B041B0C6382B6
:10020000638A9BB243F0010310E04B8A03F00603BC
:100210006BB9084B8A681B6801211B689D6C4FF401
:100220000073A847638A9BB243F0040363820020F3
:1002300038BD00BF4C0100102DE9F04115460F46B6
:10024000214C92B04822064620600021684603F007
:1002500017FA6B6802210093AB68F868019300F00D
:1002600017F90A210290F86800F012F9174F184B9D
:1002700003900F933B68221D5B6969465B683046BB
:100280009847F0B9009B134AA36003F500730093ED
:10029000019B0321A3F5007301933B6830465B6823
:1002A000D3F804802346C04738B93B680A4A5B68E4
:1002B00002215F6830462346B847009B6B60019B74
:1002C000AB6012B0BDE8F081380500104C010010A1
:1002D000A10101008D010100B101010038B5134CED
:1002E000E28902B38A4228BF0A46A16895B203F0A8
:1002F000C5F9A3890E4A2B449BB24FF08071A381AC
:10030000C2F88010E2899A4208D8638A23F0020377
:100310001B041B0C63820023E381A381044B4FF079
:1003200080721A6000E01546284638BD3805001076
:1003300000E100E0F8B5114D02462C8A0B4604F4AA
:100340008074A4B2ACB1298AC90714D42C8A0C4990
:10035000A4B2096844F001042C820968094C4FF0EA
:1003600080760F6DC4F8806081212868B8472660C8
:10037000F8BD2046F8BD0020F8BD00BF38050010CC
:100380004C01001000E100E0034B044A1B6801210E
:100390001B6810689B6818474C010010AC030010E4
:1003A00010B598B001F0B4FD012401230922022107
:1003B000274801F0E3FE08231D2200212448009471
:1003C00001F0C0FE08231E2200940021204801F005
:1003D000B9FE204B1222C3F8F42FD3F8F82F02F005
:1003E0001202122AF9D14422002107A803F048F989
:1003F000194B1A4C079303238DF82830184B07AA82
:1004000008934FF400630993164B02A90293164B0D
:1004100020460393154B0593049300230693144B36
:100420001B681B685B68984708B100200DE007AAAD
:1004300002A92068FFF700FF0028F6D10D4B4FF00E
:1004400080721A60FFF7A0FF012018B010BD00BF36
:1004500000C0024000C0005000C20050AC030010B9
:1004600000C00720A85E0100705E010000010010BE
:100470004C01001000E100E0034B044A1B681068C7
:100480001B68DB68184700BF4C010010AC0300106C
:1004900003783BB14278042A02D142798A4202D0E1
:1004A0001844F5E71846704710B5044C0448216815
:1004B000FFF740FF0023236010BD00BFA40300101E
:1004C000900500102DE9F047002581460C462F4687
:1004D000DFF84C80DFF84CA0D8F80000104E03196C
:1004E000402B09EB070110D9C0F1400632465044B9
:1004F00003F0C4F8D8F80030A41B3344C8F8003027
:10050000FFF7D2FF37440544E6E7064B224618447E
:1005100003F0B4F83368601923443360BDE8F08712
:10052000A4030010900500104AF6CD3310B50380E7
:10053000C378044623B9084A1378591C1170C37054
:1005400008212046FFF7BEFF6168A068FFF7BAFFE9
:10055000BDE81040FFF7A8BFA00300100FB410B50E
:1005600092B014AB53F8042B04AC3821204600930E
:1005700003F0FCFD002807DB0323029001A88DF89F
:1005800006300394FFF7D0FF12B0BDE8104004B06E
:100590007047FFFF2DE9F04F494B91B0494C402186
:1005A0006846A360FFF79AFE474D80462F46A14656
:1005B0000026464580F281802A781DF806305AB917
:1005C000AB2B03D1414A0123137017E0CD2B72D11D
:1005D0003E4B1A70012311E0012A0BD13B4A1278DD
:1005E0001AB1CD2B03D1022302E0AB2BFAE7002393
:1005F0003B7060E0022A03D1A37003232B705AE002
:10060000032A07D1E370324A04232B7000231360BE
:10061000636050E0042A18D12C4A2D4912781AB18F
:100620000A68C2F1030200E00A68D20093406268DF
:10063000134463600B680133042B0B603BD105232B
:100640003B70234B00221A6035E0052A33D1204845
:10065000A16802688B540368626801339A420360A0
:1006600029D100230C202B7003F00CF88246D9F816
:10067000040003F007F88346BAF1000F00D018B960
:100680001448FFF76BFF18E00C220E49504602F0A9
:10069000F5FFA1686268584602F0F0FFCAF808B09A
:1006A00051460A2000F0CAFE28B9584603F04EF819
:1006B000504603F04BF801367BE711B0BDE8F08FF0
:1006C0004C05001084050010A8030010A1030010C1
:1006D000B0030010DC5E0100044B98605A681206FB
:1006E000FCD5024B9868C0B2704700BF00000240C2
:1006F00038B505460446631B994204DD14F8010B26
:10070000FFF7EAFFF7E738BD38B505460446631B37
:10071000994205DDFF20FFF7DFFF04F8010BF6E744
:1007200038BDFFFF044B4FF48032DA615A69D203BF
:1007300001D500BFFAE7704700C00920044B4FF411
:1007400080329A615A69D20301D400BFFAE7704738
:1007500000C00920124A10B51368124C43F48033CC
:100760001360FFF7EBFF204601F0F0FD20460E4935
:1007700001F0D8FD0D4B4FF400621A8000229A70F0
:10078000DA7023680A4823F4716323F00C0343F4FE
:10079000006343F004032360BDE81040FFF7DEBEB2
:1007A00000C009200000024040420F00B4030010C6
:1007B000185F010008B5FFF7C1FFBDE80840014818
:1007C00001F0E0BD0000024008B500F02AF9BDE8E4
:1007D0000840642001F06CB810B5FFF7BBFF134868
:1007E000FFF7BCFE124A13481368134C23F400238E
:1007F0001360136C43F480731364FFF7AFFEFFF7CD
:10080000E3FF2368186800F089F9024628B10B4815
:10081000FFF7A4FEFFF7D8FFF3E7014600F05AF90F
:10082000BDE810400648FFF799BE00BF2A5F0100EF
:1008300000C00920505F0100B8020010635F010092
:100840007B5F010037B504460D4600221146104675
:1008500000F040F9022000F09FF9032208238DE800
:100860000C0000232A461946204600F01BF903B06D
:1008700030BD13B5044600221146104600F02AF997
:10088000022000F089F9032208238DE80C000023E0
:100890001A461946204600F005F902B010BDFFFFC8
:1008A00070B505460E4648F2A06400F09FF844205B
:1008B00000F0A8F800F0A8F8FF2805D175B131467E
:1008C000284600F0A9F809E0013CA4B200F090F835
:1008D000002CEAD10548FFF741FEFEE700F088F85A
:1008E000034B01221A70FF2070BD00BFAD5F0100F5
:1008F000B803001000210846FFF7D2BF70B50D46BF
:10090000012814BF04460224084E337813B9FFF7B8
:10091000F1FFFAE700F06AF82946204600F077F880
:1009200000F066F8014B00221A7070BDB803001089
:10093000F8B5054616461F460A4C69B900F056F848
:10094000284600F05FF83946304600F065F800F0C0
:100950004FF800232370F8BD2378002BEED1FFF76A
:10096000C9FFF9E7B8030010F8B5054616461F465B
:100970000A4C69B900F03AF8284600F043F83946C5
:10098000304600F044F800F033F800232370F8BD3F
:100990002378002BEED1FFF7ADFFF9E7B803001085
:1009A000014B00221A707047B803001038B5144686
:1009B0001D46FFF7A3FF29462046BDE83840FFF754
:1009C0006FBFFFFF034A3220936943F48073936142
:1009D00000F06EBF40C00920034A3220D36943F4BF
:1009E0008073D36100F064BF40C00920FFF79ABE56
:1009F000FFF7A4BE024B5869C0F3C040704700BF68
:100A000000C00920FFF768BEFF20FFF765BE0B4658
:100A100001461846FFF76CBE0B4601461846FFF725
:100A200073BE08B5FFF7CEFF642000F041FFFFF76B
:100A3000D3FF642000F03CFFBDE80840FFF7B0BFE3
:100A400010B50D4C01202346082221462070FFF7E7
:100A5000ADFF0A4B22781A706278DA70A2789A7029
:100A6000E2781A712279DA7162799A71A2791A722E
:100A7000E2795A7210BD00BFD0050010E0050010E9
:100A8000074B10B4312499701A71110A0022587062
:100A9000D9701C705A711946062010BCFFF72EBF82
:100AA000D0050010F0B40A4C9DF810609DF8145069
:100AB0003227A170110A6070E17027702271637192
:100AC000A671E5712146F0BC0820FFF717BF00BFF3
:100AD000D005001010B50F4C202323706070A1705A
:100AE000E2702346082221460420FFF75FFF0A4BED
:100AF00022781A7062785A70A2789A70E278DA7066
:100B000022791A7162795A71A2799A71E279DA714D
:100B100010BD00BFD0050010E005001038B5044638
:100B2000154D207820B3102801D9042038BD224665
:100B3000124912F8013F01F8013F131BDBB2984242
:100B4000F7D8431EDBB202331C4400231A460C497B
:100B5000FFF72CFFFF280CD1FFF74CFF02460028BF
:100B6000DFD10146FFF7B6FFAB791B07DDD4D8E72D
:100B700038BD022038BD00BFE0050010CF050010D1
:100B8000D005001003493423487002200B70FFF792
:100B9000B5BE00BFD005001010B5084C02221523C9
:100BA00023706070234610462146FFF7FFFE044B7A
:100BB00022781A7062785A7010BD00BFD0050010FC
:100BC000E00500100B46024600216620FFF7CCBE70
:100BD0000B46024600217720FFF7AABE10B50B4C4A
:100BE000102323700622234621460120FFF7DEFE54
:100BF000074B22781A7062785A70A2789A70E2785D
:100C00005A7122791A7162799A7110BDD00500105B
:100C1000E005001010B50B4C162323700B0AA370CF
:100C2000C2F307236070E1702371627123460222D0
:100C300021460620FFF7BAFE034B22781A7062782D
:100C40005A7010BDD0050010E005001010B50E4C14
:100C50002223237060702346082221460120FFF7DB
:100C6000A5FE0A4B22781A7062785A70A2789A70A0
:100C7000E278DA7022791A7162795A71A279DA719E
:100C8000E2799A7110BD00BFD0050010E005001098
:100C9000044B1A6842F400721A609A6942F40072B6
:100CA0009A61704700C00920054B4FF400225A6139
:100CB000DA60044B4FF40012C3F880211A607047C9
:100CC0008080024000E100E010B5FFF7E1FF0F2057
:100CD00001F07CF9264A274CD36943F40073D361B1
:100CE000FFF77AFDFFF7ACFEFFF778FF2248FFF72A
:100CF00035FC21782148FFF731FC217A2048FFF7A5
:100D00002DFCE1881F48FFF729FC61881E48FFF78A
:100D100025FC21791D48FFF721FC617A1C48FFF76B
:100D20001DFCA1791B48FFF719FCA1881A48FFF7A1
:100D300015FC61781948FFF711FC21781848FFF776
:100D40000DFCA1781748FFF709FC1748FFF706FCD0
:100D5000164B002283F81523FFF7A6FF144B1B68E0
:100D60001879FFF786FDBDE810401248FFF7F6BB83
:100D700000C00920E0050010C95F0100FB5F010011
:100D80000C6001001D6001002E6001003F60010049
:100D90005060010061600100726001008360010029
:100DA00094600100A5600100B660010000E100E070
:100DB000B8020010E8600100034B4FF40012C3F8C2
:100DC0008021C3F88020704700E100E008B5FFF7FC
:100DD000F3FFFFF7F7FDFFF7EDFC034A936943F4D8
:100DE0000073936108BD00BF00C0092013210020DB
:100DF00000F07CBC1321002000F050BC2DE9F04F26
:100E0000002283B03F4D1146104600AFFFF762FE4F
:100E1000FFF7ECFFE97911F028060ED03A48FFF70A
:100E20009DFB4FF4FA7000F0DDFA002109200C3729
:100E3000BD46BDE8F04F00F001BBAB7813F0110FD9
:100E40005AD0324631463046C7F804D0FFF7E2FEAA
:100E50006B782C78AB4603EB0424A4B204F10803AE
:100E600023F00703ADEB030D0DF80460E9462646B9
:100E7000EA46D6B1202E94BF5FFA86F84FF02008DC
:100E800051464046FFF7A4FEC8EB0606C244B6B280
:100E9000002211461046FFF71DFEEA78D206E8D47C
:100EA0009BF80220D307F3D5E3E7224631464B46B1
:100EB0001648FFF753FBB4F5806F4FF0080088BF6A
:100EC0004FF4806402F0DEFB0546204602F0DAFBB8
:100ED00006464DB14946224602F0D0FB2E606C60BA
:100EE0002946022000F0AAFA094B00211B68187954
:100EF000FFF7A8FCD7F804D00C37BD46BDE8F04F8B
:100F0000FFF778BFE0050010FB6001002D610100D4
:100F1000B802001010B4124B1124DA70114A587044
:100F200010789970187150781C7058719078987179
:100F3000D078D87110791872507958729079987267
:100F4000D079D872107A1873507A5873907AD27A0E
:100F50009873DA73081DC0B2194610BCFFF7CEBCF7
:100F6000D0050010E0050010044B1F221A70FF226C
:100F70005A70022111221220FFF7CCBFE0050010A9
:100F80002DE9F04F0D46064601F1090323F0070352
:100F900085B0E94600AFADEB030D8C1CFFF726FFD3
:100FA0000320FFF7EFFD002211461046FFF792FDE8
:100FB0000120FFF7F1FD4FF0020A2A4631460DF1FC
:100FC00002003D4E02F05AFB002351460D22122032
:100FD0004FEA152B337086F801A0EDB2FFF79AFFA8
:100FE00051461122122086F800B07570E846FFF7CE
:100FF00091FF8DF800B0B3460123DFF8CCA08DF847
:101000000150A4B2FB7321B2002949DDFB7B1BB95F
:10101000102903DCE5B202E0402500E0102541463E
:101020002846FFF7CFFDFB7B641BA4B243B1DAF87F
:101030000030002218798021FFF722FD0023FB7386
:1010400023B20022114610467B60FFF743FDF27980
:101050007B6812F028020FD01848FFF77FFAFFF7DD
:10106000B5FE322000F024FC642000F067FCFFF79E
:101070002BFEFFF779FF1AE09BF80210880609D5CE
:1010800021B200297A6009DD0D48FFF767FA7A6816
:10109000144603E08A07D4D5002BD2DDA844B2E77A
:1010A0000848FFF75BFAFFF75FFFFFF7A3FECD46A7
:1010B0001437BD46BDE8F08FE00500104361010024
:1010C000726101008B610100B802001001280DD08F
:1010D00002D3022810D070470C4BDA6942F00802A4
:1010E000DA61DA6942F01002DA617047074BDA69B7
:1010F00042F00802DA6104E0044B9A6942F0080207
:101100009A619A6942F010029A61704740C00920C2
:10111000184B00201A6822F480021A601A6822F420
:1011200000121A601A6C22F480521A641A6C42F08F
:1011300008021A641A6C42F010021A640E4BD3F8BB
:10114000482142F00402C3F84821D3F84C2142F070
:101150000402C3F84C21D3F8402142F00402C3F842
:101160004021064B202283F814234FF480121A608A
:10117000FFF7ACBF00C0092000C00F4000E100E055
:101180000120FFF7A3BFFFFF08B50848FFF7E6F906
:101190000020FFF79BFFFFF7F3FF054AD2F840312D
:1011A00043F00403C2F8403108BD00BFAE61010046
:1011B00000C00F40044B1A6842F480721A60DA696A
:1011C00042F48072DA61704700C00920034A0020AF
:1011D000136843F480731360FFF7ECBF00C009206D
:1011E000034B5869C0F3C02080F00100704700BF76
:1011F00040C00920012806D002D3022806D070473B
:101200000021032004E00021052001E0002104204A
:1012100000F014B94C4A08B51378032B00F2938000
:10122000DFE803F0020736534848BDE80840FFF7FF
:1012300095B9FFF7D5FF20B1454B1968B1F5C87FC7
:1012400053DAFFF7CDFF20B1414A13680133136031
:1012500018E0FFF7C5FF50B93D4B1968022906DCBD
:1012600010703C4A4FF400211160186008BDFFF770
:10127000B7FF002867D1364B1968022963DD186073
:101280000223137034490520BDE8084000F03CBB40
:10129000FFF7A6FF20B10323137000222C4B08E0B8
:1012A000FFF79EFF38B92A4B1968632903DC1A68D7
:1012B00001321A60E6E7FFF793FF0146002842D1AA
:1012C000234B186863283EDD20E0FFF789FF20B13B
:1012D0001F4B1968B1F5C87FE9DBFFF781FF68B1E3
:1012E0001B4B1968B1F5C87F08DB00211170194A42
:1012F0004FF4002010601960012020E0FFF770FF1C
:10130000014670B9124B186802280ADC1170114AA4
:101310004FF40020106019600320BDE8084000F081
:101320008DB8FFF75DFF70B9094B196802290ADD16
:101330001070084A4FF40021116018600220BDE8C7
:101340000840FFF757BF08BDC0030010C861010087
:10135000BC03001000E100E01512010008B50D48C3
:10136000FFF7FCF80C4B1B785BB90C4B01221A7091
:101370000B4B4FF40022C3F880200A49052000F0EF
:10138000C3FA094AD2F8403143F00203C2F84031AF
:1013900008BD00BF13620100D8030010C003001095
:1013A00000E100E01512010000C00F40054B20B91C
:1013B0009A6942F400129A617047DA6942F40012A5
:1013C000DA61704720C00920034A0020136843F403
:1013D00000131360FFF7EABF20C009200020FFF7C9
:1013E000E5BFFFFF10B504460120FFF7DFFF2046F1
:1013F000BDE81040014900F087BA00BFDD130100CD
:10140000014608B50120FFF7D1FF084600F050FA69
:10141000BDE808400020FFF7C9BFFFFF10B5054C2D
:10142000102308220449204600F0D6FE0023236141
:10143000E36010BDC4030010F005001007B58DF87F
:10144000000001910348694600F0CEFE03B05DF84C
:1014500004FB00BFC403001013B5044600B96C467A
:101460002146044800F0D9FEC0B200B1207802B095
:1014700010BD00BFC403001010B5FF20FFF7E6FB4E
:10148000054B0648DC7899782246FFF767F814F197
:10149000FF3018BF012010BDE0050010F56201000B
:1014A0002DE9F84F1B4D07468946AA461A4E0023E0
:1014B000337003232B704FF0010B4FF0C8082C78CA
:1014C00003F088FD0BFA04F4013C90FBF4F303FBFA
:1014D000140008FB00F000F031FAFFF7CDFF0446DE
:1014E00020B149463846FFF74BFD0FE09AF800302F
:1014F0003278062B02F10102D8BF0133D2B2D4BF39
:10150000DBB20823042A32702B70D8D92046BDE8FC
:10151000F88F00BF7006001071060010F8B500AF1C
:10152000054600F035F882B2D31D23F00703ADEB7A
:10153000030D0021684602F0A3F86946284600F032
:101540003EF801466C464FF6FF768D1EEDB2013D2A
:101550000DF1FF306D44A8424FEA16230ED010F86B
:10156000012F5A40D3B283EA13139AB243EA0623F7
:1015700083EA023383EA42139EB2ECE7601800F874
:10158000023C00F8016C2046FFF78AFFBD46F8BD1B
:10159000B0F815001530704710B504461722002129
:1015A00002F06EF8237803F01F0343F0200323704A
:1015B000637823F00C0343F00403637010BD70B52F
:1015C000037805465A09012A0E4636D103F0E30393
:1015D00003700B7043784B7083788B70437813F0F3
:1015E000300F1FBFC3780524CB7003790CBF0324D1
:1015F0000B714378C3F30112022A01D1023402E0D5
:10160000032A01D10834A4B22A78920709D49B078F
:1016100007D06A7B631C3255AA7B9BB20234A4B20A
:10162000F2546B7803F00303022B01D1023402E081
:10163000032B03D10834A4B200E00024B5F8152030
:10164000D5F80F10301902F019F8B5F8150000227E
:10165000204480B2431C9BB23254F254023080B218
:1016600070BDFFFF10B50B4CA3681A0304D5FFF73C
:10167000C5FB4FF40023E360A36A9B0442BF054B04
:101680004FF40052DA62044B4FF40012C3F8802189
:1016900010BD00BF8080024000E100E008B5104BA3
:1016A0004FF40012C3F8802038B90E480122436974
:1016B00002FA01F1194341610CE0022807D10948FF
:1016C0000122436B02FA01F11943416302E006482B
:1016D000FEF744FF024B4FF400121A6008BD00BF32
:1016E00000E100E0808002402262010008B5114B59
:1016F0004FF40012C3F8802040B90F48012243691B
:1017000002FA01F123EA010141610DE0022808D14A
:1017100009480122436B02FA01F123EA0101416306
:1017200002E00648FEF71AFF024B4FF400121A605F
:1017300008BD00BF00E100E0808002404762010078
:10174000BFF34F8F0449054BCA6802F4E0621343AC
:10175000CB60BFF34F8FFEE700ED00E00400FA0519
:1017600008B504280DD8DFE800F0030305070900D9
:10177000032004E0072002E00F2000E03F2000F0FB
:1017800051FC00F055FCBDE8084001460148FEF759
:10179000E5BE00BF6D620100014800F00FBD00BF53
:1017A000C0C00F4008B5024B00221A70FFF7C8FFF7
:1017B000F07F001008B5024BAA221A70FFF7C0FF95
:1017C000F07F001038B5114C0125204600F04CFD8B
:1017D0000F4900230B604B608B6040F2DE732046A4
:1017E000CB61CD608D6100F076FD2A46294620460A
:1017F00000F063FD03232360064B4FF400321A60B0
:1018000029462046BDE8384000F048BD004002406F
:101810007406001000E100E010B50B4C2368DA07F5
:1018200005D5012323600949204600F067FD2368A0
:101830009B0707D5BDE81040034B02221A600448FD
:10184000FEF78CBE10BD00BF0040024074060010C1
:101850007A620100014B01221A707047D90300100F
:101860002DE9F04172B60F4E0F4F0025012456F8B6
:1018700025204FEA85085AB157F8253043B1541E48
:1018800048F806401CB9984748F8074000E0002493
:101890000135102DEBD114B1044B00221A6062B651
:1018A000BDE8F081D40600109406001010E000E0BE
:1018B00038B500F097FD044600F08EFD054600F0B7
:1018C0008BFD401B8442FAD838BDFFFF08B500F0FD
:1018D00017FB0A4B4FF47A721B68B3FBF2F3013B20
:1018E000B3F1807F09D2064AF8215360054B83F893
:1018F0002310002393600723136008BD1407001012
:1019000010E000E000ED00E010B572B6094A0023D7
:1019100052F8234044B9074A42F82300064A42F8E5
:101920002310FFF7D3FF02E00133102BF0D162B692
:1019300010BD00BFD40600109406001010B5074C6F
:10194000002307492370FFF7DFFFFFF7BFFF23786E
:1019500013B9FFF721FFFAE710BD00BFD90300104C
:101960005518010008B500210B20FFF767FDBDE801
:10197000084002494FF47A70FFF7C6BF65190100AD
:1019800090B585B0044600AF41680F48FEF7E6FD0C
:1019900062680023FB71BB71D31D23F00703ADEB1D
:1019A000030D21686846BA60C7F80CD001F066FEE6
:1019B000381DFEF7B9FD206801F0C8FE204601F091
:1019C000C5FE1437BD4690BD9462010010B50446B3
:1019D00081780F48FEF7C2FDA37813B1012B05D023
:1019E0000EE0A188A068FFF75BFD09E0A3681B7803
:1019F00023B1012B04D1FFF7DDFE01E0FFF7D2FE9A
:101A0000A06801F0A3FE2046BDE8104001F09EBE94
:101A1000AB62010070B55D4B8CB000245C481C705B
:101A2000FEF79CFD00F06CFA0120FFF799FE00F034
:101A3000ADFC5848FEF792FDFFF7C4FE564B1D68FB
:101A400000F0F6FA294602465448FEF787FD544B4B
:101A50005448D3F88810C1F30061FEF77FFD0F20D2
:101A600000F0B4FA0F2000F0B1FAFFF7D7FCFFF74F
:101A7000ABFCFFF74DFBFFF7A9FB0120FFF796FC3E
:101A8000FA20FFF75BFF2046FFF790FC4648FEF781
:101A900065FD464C4648FEF761FD3220FFF74EFFDC
:101AA0002146444800F02AFC94E809005843A36802
:101AB00043436069584303F0ABFAFEF771FC3E49BB
:101AC0004FF47A70FFF720FF3C48FEF747FD3220C5
:101AD000FFF796FC3220FFF731FF3220FFF790FC32
:101AE0003220FFF72BFF6420FFF78AFCFEF752FD40
:101AF0006846FFF7B1FC02380A2843D8DFE800F057
:101B00000A42424242424242060E20000198FFF73A
:101B10005DFF37E00198FFF733FF33E006AA154673
:101B2000274B03F11806144618685968083303C494
:101B3000B3422246F7D129462248FEF70FFD21E0A5
:101B400002AA1546204B03F1080614461868596886
:101B5000083303C4B3422246F7D118681B792060CA
:101B6000237106A8FFF718FD2846CDF8275003F08B
:101B70006FFA0130ADF82D0006A8FFF7CFFC642006
:101B8000FFF730FCFFF708FEB0E700BFF07F001062
:101B9000CD620100DB62010014070010EE6201005B
:101BA00000C00F40FD6201000A63010074060010CE
:101BB0001D63010000400240651901003963010006
:101BC000536301003F6101006B63010010B54022C7
:101BD0009049914800F0DBFA90490B6843F01003FC
:101BE0000B600B6843F020030B600B6843F040036D
:101BF0000B600B6843F080030B600B6843F4806359
:101C00000B600B6843F400630B60854B1A6842F06D
:101C100001021A601A6842F002021A601A6842F061
:101C200010021A601A6842F480721A601A6842F44C
:101C300000721A601A6842F480621A601A6842F4EC
:101C400080421A601A6842F400421A601A6842F42C
:101C500080321A601A6842F400221A601A6842F44C
:101C600080021A601A6842F400021A601A6842F090
:101C700080721A601A6842F000721A601A6842F0A4
:101C800080621A601A6842F000621A601A6842F0B4
:101C900080521A601A6842F000521A601A6842F0C4
:101CA00080421A601A6842F000421A605D4A106869
:101CB00040F001001060106840F0020010601068F1
:101CC00040F004001060106840F0200010601068C0
:101CD00040F040001060106840F080001060106814
:101CE00040F4005010605048046844F08054046090
:101CF000046844F000540460CC6944F01004CC61E2
:101D0000CC6944F02004CC61CC6944F04004CC613F
:101D1000CC6944F08004CC61CC6944F48064CC612B
:101D2000CC6944F40064CC61D96941F00101D96106
:101D3000D96941F00201D961D96941F01001D96135
:101D4000D96941F48071D961D96941F40071D961CF
:101D5000D96941F48061D961D96941F48041D9617F
:101D6000D96941F40041D961D96941F48031D9611F
:101D7000D96941F40021D961D96941F48001D9615F
:101D8000D96941F40001D961D96941F08071D96103
:101D9000D96941F00071D961D96941F08061D96197
:101DA000D96941F00061D961D96941F08051D961A7
:101DB000D96941F00051D961D96941F08041D961B7
:101DC000D96941F00041D961D36943F00103D3617E
:101DD000D36943F00203D361D36943F00403D361B1
:101DE000D36943F02003D361D36943F04003D36147
:101DF000D36943F08003D361D36943F40053D361C3
:101E0000C36943F08053C361C36943F00053C361A6
:101E100010BD00BF7863010000C0024000C009206F
:101E200020C0092040C0092080C0092070B51D4C89
:101E30000020C4F80C0100F0E3F82023C4F8A0311E
:101E4000D4F8A031174D5A06FAD5002201241046C5
:101E50001321C5F80C4100F0A1F82146002000F044
:101E600077F8032000F0DEF8092000F0E9F8D5F853
:101E700088300C4E13F0806FF9D00321002000F061
:101E800067F8D6F88830074C9B01FAD50122032168
:101E9000104600F083F82368C3F30B0343F4804338
:101EA000236070BD00C00F4010B5FFF78FFEFFF735
:101EB000BDFF104B1048D3F8C0204FF0805122F0E6
:101EC0001002C3F8C020D3F8C02022F00802C3F8E3
:101ED000C0200A4B4FF480329A609A68043A52F854
:101EE000044F41F8044B8142F9D14FF080529A607F
:101EF00010BD00BF00C00F40C400001000ED00E0A6
:101F000008B500F00BF9014B186008BD140700106C
:101F100001200321024610B500F040F801200146DF
:101F200000F016F8094BD3F8A8201C4612F4806F75
:101F3000F8D00120032100F00BF8D4F8A8309B055D
:101F4000FBD51F20BDE8104000F040B800C00F4096
:101F5000400100F1804303F57C23D3F88020114336
:101F6000C3F88010024BAA221A5055221A5070470B
:101F70008CC00F40400100F1804303F57C23D3F86F
:101F8000802022EA0101C3F88010034BAA221A50D4
:101F900055221A50704700BF8CC00F4010B941EA5B
:101FA000024101E041EA4211400100F1804303F5A2
:101FB0007C230122C3F88410C3F88020024BAA229C
:101FC0001A5055221A5070478CC00F40012101FA57
:101FD00000F0034BD3F8C4200243C3F8C420704779
:101FE00000C00F40012101FA00F0044BD3F8C420D7
:101FF00062EA0002C3F8C420704700BF00C00F406F
:1020000001284FF002014FF0000001D1FFF7A0BFFF
:10201000FFF7B0BF024BD3F88800C0F340607047B1
:1020200000C00F40014BC3F80401704700C00F40CF
:10203000024BD3F80401C0B20130704700C00F401A
:10204000044BD3F8082122F00F021043C3F8080113
:10205000704700BF00C00F40420051090B4B6A316E
:1020600053F8213002F01F02D34013F0030309D0CC
:10207000012B08D0022B06D00D3802288CBF082374
:10208000062300E004231846704700BF00C00F403D
:10209000094BD3F80C3103F00303012B06D003D313
:1020A000022B06D1054B02E005487047054B186826
:1020B00070470020704700BF00C00F408C620100D5
:1020C00000093D009062010038B50B4BD3F8880041
:1020D00010F080700FD0D3F88450D3F88440FFF70D
:1020E000D7FFC5F30E0501356D006843C4F30744FF
:1020F0000134B0FBF4F038BD00C00F4008B5FFF765
:1021000089FF28B1012807D1BDE80840FFF7DCBFEF
:10211000BDE80840FFF7BCBF002008BD10B5FFF7C1
:10212000EDFF0446FFF784FFB4FBF0F010BD38B5B7
:102130000546FFF7F3FF04462846FFF78DFFB4FB83
:10214000F0F038BDF0B5490001EB121102F00F02BA
:102150005200032595409DF8146093409640C9B203
:1021600050F82170ED432F403E4300EB810440F8CE
:102170002160216C0D401D432564F0BD13B503F0B3
:10218000030400949B08FFF7DDFF02B010BD2DE9AA
:10219000B84180460D4617460024BC420CD015F8C5
:1021A000242055F8243002F007014046D2081B0ACB
:1021B000FFF7E4FF0134F0E7BDE8B881036823F0DE
:1021C00003030360034B1A6922F004021A6130BF53
:1021D000704700BF00ED00E080E80A000023826045
:1021E0000361C3600120704770B504460668C0688B
:1021F00022696368821A9A420DDAE568A268013B97
:1022000003EA050002FB006001F038FAE3680120F0
:102210000133E36070BD002070BD38B5C26803694A
:1022200004469A4205680ED043688268581E2369A6
:102230000340084602FB035101F020FA2369012004
:102240000133236138BD002038BD836843F00203A9
:10225000836083689A07F8D5836803F0110383606D
:1022600083689B07F8D4704710B504460920FFF730
:10227000ADFEA368204603F01203A360A36843F0F9
:102280001003A360FFF7E1FF032323602368002B03
:10229000FCD1FF22E3602261236410BD012907D134
:1022A000836843F0010383608368DB07F8D57047D8
:1022B000836803F0120383607047012AC36802D168
:1022C0001943C1607047DBB223EA0103C360C368EE
:1022D0001942FCD17047826830B5D30744BF02F081
:1022E00012038360002351F8234003F108050133F2
:1022F000082B40F82540F6D1826030BD30B5FF2272
:10230000036A9A420DD0026A0C460A60012303F167
:10231000080550F825500133082B44F8045FF6D126
:10232000EEE730BD38B5044608200D46FFF7FFFE46
:10233000B0FBF5F0072898BF0820411C21F00101EF
:10234000FE2928BFFE21E16038BDFFFF10B504461D
:102350000820FFF73BFE2368204643F0200323605C
:102360002368074923F4716323F00C0343F40063EB
:1023700043F004032360BDE81040FFF7D3BF00BF64
:10238000801A06000820FFF72DBEFFFF10B50D4C88
:10239000204600F02DF80723E360636843F0010353
:1023A0006360FFF7BBFE084B400918604FF47A7278
:1023B000064BB0FBF2F21A60054BB0FBF3F0054B95
:1023C000186010BD00800040DC030010E003001026
:1023D00040420F00E4030010014B9868704700BFB3
:1023E00000800040014B1B6858437047E003001019
:1023F000094B98420AD003F50823984208D003F508
:102400008043984214BF0120172002E0022000E020
:102410001620FFF7DBBD00BF00800040034600F040
:102420000F0040001B0648BF013070474368102270
:102430009A6019611A68D206FCD5704738B504460F
:102440001546FFF7F3FF20462946BDE83840FFF761
:10245000EDBF38B5044608461546FFF7DFFF010417
:1024600041F4A0612046FFF7E1FF20462946BDE880
:102470003840FFF7DBBF436830229A6019611A6861
:102480009206FCD5586970474FF40C707047FFFFF7
:10249000044A0029D0F8C801034908BF4FF48072EC
:1024A000FFF7CCBF000101000005FE00D0F8C831E5
:1024B00000225B689A64D0F8A021D179D964012107
:1024C0009964D279DA641A68D205FCD54FF0FF32EC
:1024D0009A635A639A600C225A6070470346B3F8B5
:1024E0009E31D0F8C8019B0703D50249024AFFF785
:1024F000A5BF70470005FE00000101007047FFFF07
:1025000070B50904D0F8C861084D41F4000444F4E2
:102510008074304629462246FFF790FF3046294610
:102520002246BDE87040FFF789BF00BF0005D0001C
:1025300093682DE9F041B3F50C7F8046144633D300
:10254000566806F110026260A3F11002A26065688D
:10255000AA0702D001356560F9E705F50772A3F512
:102560000B736260A360636813F0030702D001334A
:102570006360F8E72846224600F0E2FF3946102261
:10258000304601F07DF82368B5602846C5F8C8617B
:102590007360FFF78BFF28463946FFF7B1FFC8F895
:1025A00000503846BDE8F0810148BDE8F08100BF29
:1025B0000A00040010B50A4AD0F8C841002908BF33
:1025C0004FF4807220460749FFF738FF6368032203
:1025D0005A641A68D205FCD54FF480729A6010BD17
:1025E000000101000005D80038B5054688780C4682
:1025F000FFF714FF012102469140D5F8C8315B680E
:10260000586C014359649A64A288DA641A68D20546
:10261000FCD54FF480729A6038BD704710B50446FF
:102620000846FFF7FBFE010441F48001D4F8C8011D
:1026300041F4A0614FF48072BDE81040FFF7FEBE88
:1026400010B504460846FFF7E9FE010441F4800195
:10265000D4F8C80141F4A061024ABDE81040FFF778
:10266000EDBE00BF0001200010B504460846FFF78C
:10267000D5FE010441F48001D4F8C80141F4A06101
:102680004FF48072BDE81040FFF7D8BE10B5044685
:102690000846FFF7C3FE010441F48001D4F8C801E5
:1026A00041F4A061024ABDE81040FFF7C7BE00BF79
:1026B0000001010010B504460846FFF7AFFE010413
:1026C00041F48001D4F8C80141F4A0614FF4807254
:1026D000BDE81040FFF7B2BE043A38B51D46D0F849
:1026E000C8410D2A48D8DFE802F00E0E4747474799
:1026F0004747474744074A0A0122002041E04FF478
:10270000007200203DE00846FFF788FE012303FA2F
:1027100000F0236815B11843206002E023EA0000AE
:102720002060226823682168DB071B4B02F002024D
:1027300001EA030348BF42F004020BB142F0200259
:102740002168164B0B400BB142F04002236814493C
:10275000194009B142F0080223681249194009B131
:1027600042F01002120420460F4942F48072FFF733
:1027700065FE0022104604E000220C4801E0082219
:10278000002061684B6815B11A434A6038BD23EADE
:1027900002024A6038BD00BF200882A010044150E8
:1027A00008822008044110040005F3000100040021
:1027B000D0F8C80101F00F032DE9F0419B004568F6
:1027C00043F00103AB622C6A2605FCD514F4806843
:1027D0001DD0C4F309085FEA980C25D016460023E3
:1027E000AF690133634546F8047BF9D102EB8302FC
:1027F00004F003045CB1AE691444002326FA03F527
:1028000002F8015BA24203F10803F7D1456841F2E7
:1028100048230B410022DB07AA6202D4034AFFF7D8
:1028200018FE4046BDE8F0814446E3E70005F200AB
:1028300070470020704700207047FFF7B9BFFFFFC7
:10284000D0F8C8012DE9F04101F00F044668A4005A
:10285000DF1C44F00204BF08B4629846736206D0DD
:10286000002452F8045B0134BC42F561F9D1002325
:10287000B362034AFFF7EDFD4046BDE8F08100BFBB
:102880000005FA002DE9F047D0F8C8918246D9F842
:102890000420136823F004019160516801EA0308E1
:1028A00018F0080461D118F0040F2BD0166B3EB35A
:1028B000274605460121A140314219D00F439163BB
:1028C00013689806FCD5E30750693DD4002C00F04E
:1028D0009080AB6D63B1D9F80020114201D0C106E0
:1028E0006DD402225046D5F8D8109847D9F8042064
:1028F0001F2C05D0B74204F1010405F10405D9D11C
:102900000423936018F4007F0FD0DAF83C3063B1F1
:1029100048464049FFF78AFD3F494846FFF7ABFD6F
:10292000DAF83C3001465046984718F0010F09D0BC
:10293000DAF834300BB150469847D9F80C300133EF
:10294000C9F80C30BDE8F087AB6D002BD0D0D9F8BA
:102950000020114201D0C20629D403225046D5F8E6
:10296000D8109847D9F80420C2E748462B49FFF70A
:102970005DFD48462A49FFF77EFDC606044626D47B
:10298000A50706D5DAF838301BB1504604F001012E
:10299000984704F00903092BD4D1640724D5DAF849
:1029A0002C30002BCED050469847BDE8F08705224A
:1029B0005046D5F8D8109847D9F8042098E7042253
:1029C0005046D5F8D8109847D9F8042090E75046DB
:1029D000FFF76CFD504600F09DFCDAF82830002B24
:1029E000CED050469847CBE7DAF83030002BDAD11A
:1029F000A8E743077FF56DAFDAF85830002B3FF4B6
:102A000079AF01225046DAF8D8109847D9F8042057
:102A100070E700BF0005FB000002FB000005FE00A0
:102A20000002FE0070B54D781646042D1A4618D0E7
:102A300003D84DB1022D0DD027E0222D13D0232D28
:102A400013D0202D21D115E00BB3036A1BB33168DD
:102A5000984770BDDBB1846ADCB149883268A04711
:102A600070BD036B02E0436B00E0836B9BB1498850
:102A7000984770BD2BB1C36B6BB100F11001984743
:102A800070BD00F11004346001E0044870BD1046D0
:102A900070BD204670BD184670BD00BF0200040026
:102AA000012A38B50446084602D0022A2AD04AE054
:102AB00094F8143203F07F02212A44D194F81822AA
:102AC000097E914202D0417E91423CD104F5EA72E6
:102AD000DB09C4F8CC2104F5057104F5E67207D1D1
:102AE000456CA847054678BBB4F81A3263BB26E0AC
:102AF000056C04F5E873A847054628BB204600F09E
:102B000098FB21E094F8143203F07F03212B1AD1B3
:102B100094F818320A7E9A4202D04A7E9A4212D122
:102B2000D4F8CC21B4F81A32456CD21AC4F8CC21AE
:102B300004F5057104F5E672A847054620B920465C
:102B400000F0A0FB00E0014D284638BD0200040063
:102B500038B54D780446032D09D0212D14D0012D10
:102B600019D1456A1DB111461A46A84738BDE56A14
:102B70001DB120464988A84738BD10682946402223
:102B800000F07EFD284638BD00F1100414600722D5
:102B90001A80002038BD014838BD00BF0200040083
:102BA00008B50346A120187101294FF000005971A2
:102BB0009871D871187258729872D8720BD007D366
:102BC000202910D102211A73120A99725A730AE04D
:102BD0000AB101229A71197F1A1D18680823FFF79C
:102BE0002FFE002008BD014808BD00BF0300010002
:102BF0004C2070472DE9F0410C68074614F0030F94
:102C00000D4690468E684B6802D0472B40F2838079
:102C1000483B04F14B0223F0030322F003022A6035
:102C20006B6020460021482200F02AFD3B4B2760C4
:102C300023643B4B63642B6A23626B6A6362AB6AF7
:102C4000A362EB6AE3622B6B23636B6B6363AB6B17
:102C5000A363EB6BE3637378042B02D03148BDE8C8
:102C6000F0817379022BF9D13379012BF6D8B3783F
:102C700023763379012B04D0EB685A78042AEDD1FE
:102C800015E033781E443278334616445A78052AC4
:102C900005D1DA78032AF6D19B78237701E0042A5C
:102CA000F1D1237F002BE7D11F48BDE8F0815A798D
:102CB0000A2AD3D19A79002AD0D1997861761978E5
:102CC0001944187982420FD20E780846314446786A
:102CD000052E07D1C678022E04D1807806064CBF97
:102CE000A076E0760132ECE7A37E002BDCD0E37E19
:102CF000002BD9D0696C384621B90C49224600F026
:102D00008DFC04E0224600F089FC084B6B64C8F897
:102D10000040BDE8F0810648BDE8F081512B01007C
:102D2000252A01000800040009000400A12A01006E
:102D30000A00040090F8143213F01F0305D100F2CA
:102D40009D12C0F8CC21184670470148704700BF5B
:102D5000010004007047704790F8143203F01F031D
:102D6000012B06D0022B15D0002B37D100F5CF72E6
:102D70000DE090F89D318BB390F8182290F89B31BC
:102D80009A422BD20023A0F8D43100F5EA72C0F8A1
:102D9000CC2121E090F818321A064BBF4FF4803155
:102DA000012103F00F0203F08F0201FA02F290F802
:102DB0009D1109B91B0711D1D0F8B4311A420DD0B9
:102DC000D0F8B8311A420CBF00230123A0F8D43147
:102DD00000F5EA73C0F8CC31002070470048704716
:102DE0000100040010B590F8142212F01F0237D130
:102DF00090F81732022B09D0032B19D0012B2FD1B9
:102E0000D0F8A031C0F8CC31122321E0D0F8AC3199
:102E100090F816128A4205D01C780CB15C882344C5
:102E20000132F7E71A78DAB1C0F8CC315B880FE0ED
:102E3000D0F8A43190F81642A24204D0197801B11A
:102E40000B440132F8E71A7852B1C0F8CC311B7844
:102E5000B0F8D0219A4288BFA0F8D031002010BD30
:102E6000004810BD0100040090F8143203F01F0365
:102E7000012B0FD190F89D3163B190F8183290F882
:102E80009B219A4206D903F5E0730344C0F8CC3184
:102E9000002070470048704701000400F8B590F822
:102EA0001432044613F01F030D4602D0022B1BD030
:102EB0004AE0B0F81632012B0ED1036C03B19847EB
:102EC000B4F89E312DB143F00203A4F89E310020E6
:102ED000F8BD23F00203F8E7022B35D190F8191260
:102EE000BDE8F840FFF7A5BC90F818321A0603F0C9
:102EF0008F0105D503F00F024FF48036964001E0B4
:102F000001268E4094F89D21F2B11B071CD0D4F805
:102F1000B4311E4218D0B4F81672AFB935B120469C
:102F2000FFF7B4FBD4F8B8311E430AE0D4F8BC3143
:102F30001E42CCD12046FFF7BDFBD4F8B83123EABE
:102F40000606C4F8B861C2E70048F8BD01000400F5
:102F5000F8B590F81472044617F01F0740F0BE80D1
:102F600090F81632002B00F08480D0F8A851D0F8E9
:102F7000AC3190F89A21012A08BF1D462B78002B0E
:102F800000F0A2806B78042B4ED0052B4ED0022B84
:102F90006CD16A7994F81632934243D184F89D310A
:102FA0002B7984F89B310023E21801330021082B90
:102FB00082F8C011F8D1012694F899319E4217D2B7
:102FC0000122B240D4F8B4311A4203D0204631462F
:102FD000FFF736FB4FF48032B240D4F8B4311A42D6
:102FE00004D0204646F08001FFF72AFB0136E3E7D4
:102FF0004FF00113C4F8B4310023C4F8B831C4F859
:10300000BC3120460121FFF7D5FAEB7913F0400FD0
:10301000B4F89E3114BF43F0010323F00103A4F878
:103020009E3123E06B8822E0EF781FE0F7B9AB78A0
:103030001A0603F08F0606D503F00F034FF4803213
:1030400002FA03F301E00123B340D4F8B42120468F
:103050001343C4F8B4312946FFF7C6FA2046314677
:10306000FFF7DCFA20463146FFF7FEFA2B781D44C5
:1030700084E780F89D31012594F899319D4217D25B
:103080000122AA40D4F8B4311A4203D0204629467E
:10309000FFF7D6FA4FF48032AA40D4F8B4311A427E
:1030A00004D0204645F08001FFF7CAFA0135E3E776
:1030B00000214FF00113C4F8B431C4F8B811C4F8BA
:1030C000BC112046FFF776FA94F89D0194F8162279
:1030D000034B904214BF18460020F8BD0048F8BDCD
:1030E000010004002DE9F74F90F81432044603F074
:1030F0001F03012B40F0918090F89D31002B00F0D0
:103100008C80D0F8AC31D0F8A85190F89A210026E4
:10311000012A08BF1D46434BB2463746B1462A78BE
:10312000002A78D06A78042A0AD0052A1CD0022AFC
:103130006ED1697994F89D21914269D06A8868E0DE
:1031400095F8029094F81822EF7891455DD194F8A3
:103150001622974259D104EB090393F8C0A183F8D2
:10316000C07100231E4653E094F8182291454FD1B8
:1031700095F8028018F0800F08F08F0B06D008F049
:103180000F084FF4803202FA08F803E04FF001080C
:1031900008FA0BF894F8162297421BD1D4F8B42100
:1031A000204642EA0802C4F8B421D4F8B8212946DE
:1031B00022EA0802C4F8B8210193FFF715FA204665
:1031C0005946FFF72BFA20465946FFF74DFA46EAD3
:1031D000080618E057451BD118EA060F17D1D4F896
:1031E000B4216FEA080802EA0802C4F8B421D4F84E
:1031F000B821204602EA0802C4F8B82159460193D2
:10320000FFF71EFABA46019B02E0002600E0BA462C
:103210002A78154483E7184600E0024803B0BDE869
:10322000F08F00BF01000400002100F50572FFF7D8
:1032300004BBB0F8D03110B5402B28BF402380210B
:10324000D0F8CC210446FFF7FBFAD4F8CC31034484
:10325000C4F8CC31B4F8D031181AA4F8D00110BD9C
:1032600010B50021D0F8CC210446FFF7A1FAD4F81C
:10327000CC310344C4F8CC31B4F8D031181AA4F8D6
:10328000D00110BD002280211346FFF7D9BA0021DA
:1032900000F5EA72FFF78CBA10B580210446FFF7FB
:1032A000F5F90023A4F8D03110BDFFFF90F81432D7
:1032B00013F01F0307D190F8162262F07F0280F806
:1032C0009C21184670470148704700BF0100040068
:1032D000F8B504460F460546002694F898319E42FC
:1032E00013D2D5F858316BB12046D5F878113A464B
:1032F0009847074B984205D0054638B12046FFF75E
:10330000CBFF03E001360435E7E7014D2846F8BD61
:103310000200040001224FF00111A0F89E210022BA
:10332000C0F8B41180F89C2180F89D21C0F8B82124
:10333000C0F8BC210E21FFF7CBBFFFFF10B504463C
:10334000FFF772FF94F814122046C909FFF765F9D8
:10335000B4F81A322046A4F8D0310121FFF7B8FFA3
:10336000374B98426AD194F81432C3F3411313B126
:10337000022B50D05EE094F815320B2B5AD8DFE8C0
:1033800003F0060F5913591E272931333C3EE368D9
:103390002046984700284DD12046FFF74AFF4CE0D1
:1033A000636A2046002102E0636A204601219847B3
:1033B00000283FD12046FFF765FFE36C27E0204659
:1033C000FFF774FF002835D12046FFF75BFF34E09C
:1033D0002369DDE720460021FFF758F90023A4F810
:1033E000D0312AE06369D3E7A3692046984708BB38
:1033F0002046FFF747FF636C09E0E369C8E7236AEB
:1034000020469847B0B92046FFF73CFFA36CA3B114
:103410002046984711E0A36863B1204601219847F0
:1034200040B9B4F81A32002BCED094F81432DB092C
:1034300003D0B1E72046FFF72FFF002010BD00BFEB
:103440000200040038B590F814320446DB0923D199
:10345000B0F8D03113B3FFF703FFB4F8D031EBB9B4
:1034600020460221FFF734FF0F4B984218D194F801
:103470001432C3F34113022B0AD1A36843B120468F
:1034800001219847054618B92046FFF7FBFE08E0E2
:103490002046FFF701FF01E0FFF7F9FE002500E0FD
:1034A0000546284638BD00BF02000400013A10B5A9
:1034B0000446062A40D8DFE802F0041D21063F3A00
:1034C0003C00036817E00421FFF702FF1B4B984202
:1034D00032D194F814122046C90904D1D4F8CC2171
:1034E000B4F8D03103E00021D4F8CC210B46FFF72B
:1034F000A2F921E04368204698471DE090F8143275
:10350000DB0909D00321FFF7E3FE0C4B984213D1EE
:103510002046FFF78EFE0FE090F89C110B060BD5AE
:1035200001F07F0180F89C11FEF7EAFF04E0002122
:1035300000E08021FFF7BEF8002010BD020004006B
:1035400070B515460E464FF407720021044600F090
:1035500097F82A7B254B84F89921A365C4F8D840B5
:1035600012B1E365C4F8DC40214B224A2360224BB0
:103570006360224BE360224B6362224B2361224B48
:103580006361224BA361224BE361224B2362EB6B0D
:10359000002B08BF134623651F4A2B6C002B08BF66
:1035A000134663656B6A2364AB6AA3632B69A362EA
:1035B0006B69E362AB6923632B6A6363EB6AE36362
:1035C0002B6B63646B6BA364AB6BE3643368C4F80D
:1035D000A0317368C4F8A431B368C4F8A831F368A3
:1035E000C4F8AC313369C4F8B03170BDAD340100FA
:1035F0003D330100552D010045340100592D0100D6
:103600009D2E0100E52D0100352D0100512F0100F7
:10361000692E0100E5300100572D010010B590F82A
:103620009831072B0AD800EB83040133C4F85811F2
:10363000C4F8782180F89831002010BD004810BDF2
:103640000B00040010B590F89941B1EB440F06D877
:1036500000EB81008265C0F8D830002010BD014821
:1036600010BD00BF0300010008B50022114610463E
:1036700000F0AAFDBDE80840FEF7CCB902F0B0BBEF
:1036800002F0C8BBF8B5304F3C68A0B1C51CAD080E
:10369000002605F10A0E05F1030C05E02368B3F1DD
:1036A000805F14D02646A468002CF7D10C3001F0BE
:1036B000F5FC431C10D10020F8BD1168B1F1805F0A
:1036C00015D151680B44033363609368A360A2680B
:1036D0006368002AF1D10AE04FF0005380E8280027
:1036E00084600EB9386000E0B0600C30F8BD9D42D7
:1036F00007DC634505DC20464FF0005340F80C3BE7
:10370000F8BD734511D920464FF00051656040F86F
:103710000C1B00EB8501A1604FF0805440F8254060
:103720005D1B033D4D608A60F8BD002ABAD1A0EB55
:10373000830001F0B3FC0130BDD04FF0005384E8AA
:10374000280004F10C00F8BD2C050010A8B14FF0C2
:10375000805340F80C3C50F8042C72B11368B3F15C
:10376000805F0AD1536850F8081C0B44033340F8BB
:10377000083C936840F8043CEDE7704710B5FFF74C
:1037800081FF044628B91722034902F06FFB02F0BB
:103790005AFB204610BD00BF0065010010B5425C19
:1037A0004318342A01DC002010BD352A06D1194601
:1037B00011F8012F302AFBD0002AF4D01A46302409
:1037C00012F8011D392901D11470F9E70131117086
:1037D0000278302AE7D01A1A002A03DB13F80129ED
:1037E0009A70F8E7012010BD30B58C1F0A25A14260
:1037F0000CD090FBF5F3C3EB4312C3EB82023030E5
:1038000000EB420001F801091846F0E730BDFFFF68
:103810000EB430B5054690B013AB53F8044B2822D4
:10382000002106A80593FFF72BFF0A2309936FF0E9
:1038300000430893104B00940293059B4FF0FF3216
:10384000019306A86FF00043069500F00FFD089B5A
:103850000446013B002B089303DB069B00221A70F1
:1038600003E006A9002001F05BFC204610B0BDE893
:10387000304003B0704700BF81380100FFFFFFFFF9
:103880002DE9F04F144647F6F0724E689DB006934E
:10389000C6F30F4323F00F035B040F685B0C9342E6
:1038A0000590DDF89CB00997079627D10023E370B7
:1038B000C6F313033B434FF06E0315D169226370C7
:1038C000002E4FF066032270A37001DAA64B10E0C1
:1038D000069B980706D4A54A13F0040FA44B08BF13
:1038E000134606E0A34B04E023706122A3709F4BB4
:1038F0006270269A0320136000F033BC059B23F00E
:103900002003412B00F03982002200233846314643
:1039100002F0DCF938B106F10043099A1E46012392
:1039200017460A9300E00A900022002338463146E9
:1039300002F0B6F9002840F0028240F22D150FAADD
:103940003846314601F0EDFC0F9ACDE910015543A0
:10395000A5F5AB531C3B4FF47A7593FBF5F50020AE
:10396000AA1A854901F00AFD002DCDE91A0106DAEF
:1039700077A3D3E900236E42CDE9162306E07F4BFF
:103980004FF00002CDE9162316D02E46F10709D4D8
:10399000DDE91601DDE9162301F07EFE7610CDE9A2
:1039A0001601F3E7DDE91601DDE91A2301F074FEE3
:1039B000012ECDE91A01EBD1DDE91001DDE91A2371
:1039C00001F0FAFECDE91201DDE9120162A3D3E9AB
:1039D000002302F07BF988B1DDE912010022684B77
:1039E00001F05AFECDE91201DDE91A010022644B13
:1039F00001F0E2FE013DCDE91A01E5E7DDE9120142
:103A000057A3D3E9002302F0BDF988B1DDE9120123
:103A100000225B4B01F0D0FECDE91201DDE91A0175
:103A20000022574B01F038FE0135CDE91A01E5E7D8
:103A3000DDE9120102F0EAF86B4213EA250338BF10
:103A40002B4682460B930F9A5046AE1A02F020F98D
:103A5000324601F093FC00220023002DCDE9120133
:103A6000CDE914232FDA3AA3D3E90023CDE91623B5
:103A700000220023CDE91823DDE91689DDE91601CE
:103A80004FF000084246DDE918674B4601F03EFF63
:103A900032463B4602F022F8CDE91801CDE91689FD
:103AA000DDE916010022354B01F0F6FD02460B461A
:103AB0000020314901F02AFF0022304B01F07CFE4A
:103AC000CDE918010CE02D4B4FF00002CDE9162393
:103AD0004FF000024FF00003CDE9182300F094806E
:103AE0000B9B0893089BDA074CD4DDE91623DDE92C
:103AF0001889DDE918671046194601F0EFFF4246C4
:103B00004B4601F0EBFF32463B4601F0C5FDCDE9E7
:103B10001801DDE91601DDE9162301F0BDFDCDE94F
:103B20001601DDE91689DDE916014FF0000842466D
:103B3000DDE918674B4601F0E9FE3B46324601F0ED
:103B4000CDFF089BCDE918015B10CDE91689C8E7C8
:103B50009A9999999999C93F00000000006AF84024
:103B60000000000080842E414A6501008862010047
:103B70001A650100186501000000F03F00001440C4
:103B800000002440DDE91223DDE91889CDE90C238A
:103B9000DDE91601DDE9182301F0A0FFDDE9146776
:103BA00032463B4601F078FD424606460F46DDE9C7
:103BB0000C014B4601F070FD02460B46304639467B
:103BC00001F08CFFCDE91401DDE91601DDE91223D6
:103BD00001F062FDCDE91201DDE91289DDE9120192
:103BE0004FF000084246DDE914674B4601F08EFEB7
:103BF0003B46324601F072FF089BCDE91401012BD0
:103C0000CDE912897FF471AFDDE91201DDE91023FE
:103C100002F08AF810B90AF1FF3A14E7DDE912233D
:103C2000DDE9100101F072FECDE91001DDE9142398
:103C3000DDE9100101F06AFECDE91001DDE91A238A
:103C4000DDE9100101F0B8FDA5A3D3E90023CDE91A
:103C50001001DDE9100101F01FFDCDE91001DDE9E2
:103C6000100101F0D3FFDDE91067804602F010F883
:103C700002460B463046394601F048FE98A3D3E988
:103C8000002301F009FDCDE91001DDE9100101F08B
:103C9000BDFF0646002E06DA06F5742606F51076F8
:103CA00008F1FF38F6E7904A96428F4B06DDA6F5FD
:103CB0007426A6F5107608F10108F5E7B8F1000FB3
:103CC00006DA08F5742808F510780AF1FF3AF5E7E6
:103CD000984506DDA8F57428A8F510780AF1010AC0
:103CE000F6E7824B9A4511DC013398FBF3F296FB21
:103CF000F3F37F480A2100FB028800FB036601FB07
:103D00000A2A01FB08384E43013D1DE0764B9A45D7
:103D10001ADD0A229AFBF2F16FF0090303FB01AAF4
:103D20007448013500FB0A8A9AFBF2F803FB08A3EA
:103D300000FB0366053696FBF2F68A4604E0002691
:103D4000B046B2466FF004052146302701F8067BE5
:103D50005046FFF749FD04F10C014046FFF744FDD2
:103D600004F112013046FFF73FFD002323750A9B43
:103D70000535E77443EA850500E00025EB0701D52A
:103D80005D4B0AE0069B9F0706D45C4A13F0040FC4
:103D90005B4B08BF134600E05A4B269A25F00105FD
:103DA0001360042395FBF3F5059BDBF80000612B02
:103DB00010D006DC452B6DD0472B4DD0412B49D17F
:103DC00008E0059B662B00F00581672B44D0652B2E
:103DD00040D15FE007990022C1F3130309990A4318
:103DE0000799C1F30A5515B1A5F2FF3104E052EA73
:103DF0000301454908BF002188B9069E36070ED445
:103E0000002D0B464148059D41490CBF302231220F
:103E1000612D08BF01462046FFF7FAFC10E0002D97
:103E2000CDE90023029103463A493B48059D0CBF6A
:103E300030223122612D08BF01462046FFF7E8FC01
:103E40002D4A2E4B079933EA210328BF1346269AA1
:103E5000136086E167230593069B002843F4006303
:103E60000693DCBF0123CBF80030DBF800102046BE
:103E70001129D4BF01311221FFF790FCDBF800308B
:103E800005449D42C0F29F80013BCBF80030059B6A
:103E9000023B0593DBF80030112B05DD299A113B1D
:103EA00013601123CBF80030069BDBF8006013F49D
:103EB000006706F1020604D131462046FFF76EFC8A
:103EC000054463782370DBF8003023B940F608031B
:103ED000069A134013B32E23637020E0AFF30080E3
:103EE0000000000080842E413F420F009F860100A9
:103EF0006079FEFF40420F004A65010088620100C0
:103F00001A6501001865010001FCFFFF1C65010036
:103F1000246501003B6501002C6501000126299BF9
:103F20001B68002BC2BF3E23A355013677B1069B09
:103F30001F070BD4A219161B12F8013D302BFAD023
:103F40003E2BF8D02E2B08BF06F1FF369DF814301B
:103F5000002DA355B8BF6D4206F1020306F1010220
:103F6000B5BF2D212B211E461E46B5F57A7FA154E3
:103F70000ADB4FF47A7295FBF2F202F13001E15460
:103F800079495E1C01FB0255632D0ADD642395FB14
:103F9000F3F303F13002A2556FF0630202FB035505
:103FA00001360A2395FBF3F3DBB203F13002A2558D
:103FB000C3EB4312C3EB82033035344405EB4303B8
:103FC0006370B01CCDE02A1DFFF65EAF6A1C9B1A21
:103FD000CBF80030069A002DDBF8003002F40067C1
:103FE0004CDAC5F100085A1C904509DD30232370D6
:103FF0002E236370DBF80030299A0226136038E024
:104000002B449E1C122EC1BF299A113B136013260C
:104010005FB931462046FFF7C1FB30B17FEA0508A2
:1040200006F1010601D163780DE0B8F1010F04EB50
:1040300006030CD11A1B002A03DD13F801299A701C
:10404000F8E70136302323702E23637011E01A1B2A
:10405000002A03DD13F80129DA70F8E73023237012
:104060002E236370289A3C23A37008F1FF33023695
:104070001360299B1B68002B25DC59E005EB030826
:1040800008F10206122E3DDD3FB913212046FFF74D
:1040900085FB10B10135142600E01326721E9542EF
:1040A000234614DA13F8012F03F8012C1A1B95424A
:1040B000F8DA63192E225A70DBF800301D44299B70
:1040C000113D1D60A5B33E23A355013630E013F822
:1040D000011F03F8011C191B8A42F8DCA3193C22BA
:1040E00003F8012CAD1B289B2E2202351D60A25522
:1040F000DBF80020731CD2B1299902360A603E22F7
:10410000E25415E03FB931462046FFF747FB10B1B6
:10411000013508F10306234613F8012F03F8012C9B
:104120001A1B9542F8DA25442E236B7000E01E46D8
:1041300077B1069B180713D42644301B16F8013DAF
:10414000302BFAD03E2BF8D02E2B0AD1013808E0C4
:10415000DBF8003023B9069B190701D4701E00E07C
:1041600030461DB0BDE8F08F18FCFFFFF0B50446E7
:104170000D461F4616468FB02822002104A8FFF7DF
:104180007FFA0A2307936FF0004306930D4B0494C4
:10419000002402936A1E23468DE8C00004A800F0A4
:1041A00065F8069B0546013BA342069302DB049B90
:1041B0001C7003E004A9204600F0B2FF28460FB0AF
:1041C000F0BD00BF8138010070B54FF4A07200212E
:1041D0002048FFF755FAC020FFF7D0FA1E4CC02246
:1041E00000211C4D20602826FFF74AFA2068002392
:1041F000182406FB035204FB03010133082B516210
:10420000F7D1144A1549002001F02AF84FF48053E1
:104210004FF4806200210F4800F0BCFE104A1149A3
:10422000012001F01DF84FF480534FF4806200210B
:104230000B4800F0AFFE0C4A0A49022001F010F8CA
:10424000BDE870404FF480534FF48062002106486F
:1042500000F0A0BEEC030010E80300104C65010064
:10426000140400104E6501003C0400102DE9F04FCD
:104270000546B1B0CDE90A23DDF8EC8000223A9B77
:104280000492187803F1010A002800F07E862528A0
:1042900001D100241FE0049BDDE90A671946DA1703
:1042A0005C1C1346B142BB4180F26586AB68013BA2
:1042B000002BAB6005DB2B685A1C2A60187000F0DD
:1042C0005ABE294600F02CFF00F055BE09D92D2F0B
:1042D0000ED144F0010453461AF8017B2B2FF5D17F
:1042E0000BE0202F0CD0232F0DD144F00804F2E76F
:1042F000302F08D144F40074EDE744F00204EAE7FB
:1043000044F00404E7E72A2F02D000260A2211E035
:10431000D8F8006008F10402002EBCBF764284F099
:10432000010403F1020A5F78904608E002FB0636BA
:104330001AF8017BA7F13003D9B20929F6D926EA88
:10434000E6732E2F0E931DD19AF800702A2F08D1F4
:10435000D8F800909AF8017008F104080AF1020AEE
:104360000AE00AF1010A4FF000090A22A7F130031E
:10437000D9B2092940F20386B9F1000F02DB44F0FB
:10438000100401E04FF000096C2F0ED19AF8007074
:104390006C2F03BF9AF8017044F060040AF1020A1E
:1043A0000AF1010A18BF44F020044C2F01D0712FEC
:1043B00004D19AF8007044F060041CE0682F0FD11B
:1043C0009AF80070682F03BF9AF8017044F4807463
:1043D0000AF1020A0AF1010A18BF44F080040CE055
:1043E0006A2F02D144F0400403E07A2F01D0742FE9
:1043F00003D19AF800700AF1010A672F1CDC652FBF
:1044000080F2B282472F00F0AF8209DC412F00F02A
:10441000A582452F00F0A882002F00F0BF8027E082
:10442000612F00F09B8203DC582F00F0A8811FE071
:10443000632F17D0642F09E0702F00F0F68108DC9D
:104440006E2F00F0B18000F3FB81692F00F04F82E6
:104450000EE0752F00F01882782F00F0BB81732FCB
:1044600006D1C4E008F104030793D8F8007001E016
:10447000CDF81C800E9B14F0010603F1FF33089366
:104480003CD10E9A14F4007FA2F10204049A18BFE2
:10449000302310464FEAE2710A460146CDE90E127A
:1044A00008BF20234FF000084FF00009049AB4EB36
:1044B00008014244089120D4DDE90E01DDE90ABC7F
:1044C00010EB080041EB0901584571EB0C020FDAC3
:1044D000AA68013A002AAA6004DB2A68511C2960F4
:1044E000137005E018462946089300F019FE089B52
:1044F00018F1010849F10009D8E70492049B194614
:10450000DA175C1C13460A46DDE90A0182428B4138
:104510000DDAAB68013B002BAB6004DB2B685A1C47
:104520002A601F7003E02946384600F0F9FD002E8E
:1045300000F01D852246089B002603F1FF38002766
:10454000E3174FF02009C6EB080100291FDBDDE966
:104550000ABC901943EB0701584571EB0C0112DAC4
:10456000A96801390029A96005DB2968481C286071
:1045700081F8009007E029462020CDE9042300F0CF
:10458000CFFDDDE90423013647F10007DBE7089B97
:10459000002BA8BFE418234600F0E7BC0AF1FF3A5D
:1045A000CDF81C8000F0E4BC08F1040314F0400FC7
:1045B0000793D8F8003006D0049A1046D117C3E903
:1045C000000100F0D5BCA7060DD4E60504D59DF882
:1045D00010201A7000F0CCBC240604D5BDF81020C1
:1045E0001A8000F0C5BC049A1A6000F0C1BC08F142
:1045F00004030793B14AD8F80030002B08BF1346D4
:104600001846089300F024FD14F0100F0746089B8D
:1046100002D04845A8BF4F460E9AD61B14F001029F
:1046200008923DD1049914F4007F4FEAE17C0846DA
:104630006146CDE90E0114BF302220224FF0000860
:104640004FF00009741EC8EB0401002922DBDDE9EC
:104650000E01DDE90ABC10EB080041EB09015845E9
:1046600071EB0C0111DAA96801390029A96004DB9A
:104670002968481C28600A7007E0104629461E93E6
:104680001C9200F04DFD1E9B1C9A18F1010849F187
:104690000009D8E7049A26EAE67632440492A61B7B
:1046A000049A4FF000081046D1170A460146CDE99A
:1046B0000E124FF00009474523DDDDE90E01DDE96B
:1046C0000ABC10EB080041EB0901584571EB0C02E4
:1046D00012DAAA68013A002AAA6003EB080205DB95
:1046E0002968481C286012780A7005E0294610786D
:1046F0001C9300F015FD1C9B18F1010849F10009FD
:10470000D9E7049B002FA8BFDB190493089B002B5B
:1047100000F02E84049B4FF000081946DA17134668
:104720000A464FF00009741E2027C8EB0401002937
:1047300020DBDDE90ABC12EB080043EB0901584518
:1047400071EB0C0111DAA96801390029A96004DBB9
:104750002968481C28600F7007E029462020CDE911
:10476000082300F0DDFCDDE9082318F1010849F118
:104770000009DAE7049B002EA8BF9B19F5E3600649
:1047800009D508F1070828F0070808F1080307937E
:10479000D8E900BC07E0D8F8002008F104039346EC
:1047A00007934FF0000C210602D51FFA8BFB03E0A4
:1047B000E20503D50BF0FF0B4FF0000C404914F05D
:1047C000080F404808BF0846E30640F1EA8024F499
:1047D0000074E6E0660609D508F1070828F0070826
:1047E00008F108030793D8E900BC07E0D8F80020D7
:1047F00008F10403934607934FF0000C200602D5FE
:104800001FFA8BFB03E0E10503D50BF0FF0B4FF024
:10481000000C2B4914F0080F2B4808BF0846E2068D
:1048200040F1C18024F40074BDE0D8F8002008F104
:104830000403079393464FF0000C24492248B5E047
:10484000630609D508F1070828F0070808F10803EE
:104850000793D8E900BC07E0D8F8002008F104036A
:10486000934607934FF0000C260602D51FFA8BFBE8
:1048700003E0E00503D50BF0FF0B4FF0000C14F044
:10488000080F0F4912485EE0610609D508F10708D4
:1048900028F0070808F108030793D8E900BC07E0EF
:1048A000D8F8002008F10403934607934FF0000C5A
:1048B00022060FD51FFA8BFB10E000BF50650100E8
:1048C00088620100576501005A65010070650100AA
:1048D0005D650100E30503D50BF0FF0B4FF0000C05
:1048E00014F0100161D024F4007400215DE066062C
:1048F00009D508F1070828F0070808F1080307930D
:10490000D8E9002305E0D8F8002008F10403079354
:10491000D317200601D512B202E0E10501D552B24B
:10492000D317002A73F1000105DAD2F1000B63EB13
:10493000430CB1480BE09346A2079C4606D4AF490E
:10494000AF4814F0040F08BF084600E0AD4814F06B
:1049500010012BD024F40074002127E0E3065CBF93
:1049600044F010044FF00D0914F0100F08F107087F
:1049700028F0070808BF4FF0060914F0200144F49E
:10498000806008F1080318BF002107930446D8E9A6
:1049900000234FF0000BCDE926234FF0000C084612
:1049A00004E0994902E0994900E09448049EDDE959
:1049B0000A23921B63EBE673CDE9082323904FF0A3
:1049C000FF3024902590CDF8889000204FF05503BB
:1049D00028AE835501302028F8D114F4826F04BF2B
:1049E00001202290672F14DC652F80F2BC80472FB6
:1049F00000F0B98006DC412F00F0B580452F40F073
:104A0000C280B0E0612F00F0AE80642F11D0582F2B
:104A10000CE0702F10D006DC692F0AD06F2F40F009
:104A2000B28000211DE0752F03D0782F40F0AB80BD
:104A300002E000260A2728E000205BEA0C038046FB
:104A400000F0A3800BF00F068F5D28AE87554FEA6C
:104A50001B1646EA0C764FEA1C17B346BC460130DB
:104A6000EBE75BEA0C03884600F08F800BF0070051
:104A7000303028AE88554FEADB0040EA4C704FEAF0
:104A8000DC068346B4460131EBE75BEA0C03B04633
:104A90007BD05FEA5C014FEA3B004FEA9B0343EAAD
:104AA0008C7318934FEA9C031993DDE918231218AD
:104AB0004B4119461046130943EA017310930B0941
:104AC0001193DDE9102312184B4119461046130AC1
:104AD00043EA016312930B0A1393DDE912231218C0
:104AE0004B4119461046130C43EA014314930B0C37
:104AF0001593DDE9142312184B41104619461A93F9
:104B000000231B93DDE91A2312184B411946D308E1
:104B100043EA41730C93CB080D930C9B1BF10600E9
:104B2000A3FB07890D9B4CF1000107FB0399B0EB38
:104B3000080061EB0901030943EA017316930B09AD
:104B40001793DDE91623DDE90C01801859410BF1BB
:104B5000300200EB8003A2EB430228ABF254834601
:104B600001368C4691E725AB039324AB029322AB2D
:104B7000019323AB009328AA234626A938463C9EDE
:104B8000B047804601E04FF0000814F480631C93A6
:104B90000ED000232293249B002BC4BF03F1FF33CC
:104BA0002293259B002B09DD229A013B134404E04C
:104BB000229BB3EB080348BF00232293229E239835
:104BC00000F046FA0E9B46449E1B04F001030E9330
:104BD00040F201232340361A2BB900220023771E0E
:104BE0004FF020091DE04FF000094846C117002290
:104BF0000023CDE91E013EE04A6501008862010004
:104C00001A650100186501005F650100706501000B
:104C1000DDE90801824273EB010106DB013243F159
:104C20000003B91A0029F3DA13E0A9680139002951
:104C3000A96005DB2968481C286081F80090EDE731
:104C400029462020CDE91E2300F06AFADDE91E2363
:104C5000E4E726EAE679C9EB0706C6E7DDE91E01C7
:104C600080185941DDE908BC584571EB0C010DDB9A
:104C7000013243F10003239909EB0207481C2390FA
:104C800091F800E0BEF1000FE8D113E0A968013906
:104C90000029A96005DB2968481C286081F800E02C
:104CA000E6E729467046CDE9202300F039FADDE930
:104CB0002023DDE70E9B002B35D13846F917CDE9CF
:104CC0001E0114F4007F14BF4FF030094FF020098B
:104CD00000220023741EA11A002920DBDDE91E0139
:104CE000DDE908BC80185941584571EB0C0112DA16
:104CF000A96801390029A96005DB2968481C2860DA
:104D000081F8009007E029464846CDE9202300F0CD
:104D100007FADDE92023013243F10003DBE726EA4D
:104D2000E6763744A61B1C9B43B93846F917002288
:104D30000023CDE91C014FF030098FE00024A0458D
:104D400040F3DE8028ABE05C3C2808D03E285FD1F1
:104D50003846F91700220023CDE91C013BE0384614
:104D6000F917CDE91C0100220023249907EB020961
:104D700001390029249161DBDDE91C01DDE908BC72
:104D800080185941584571EB0C0113DAA9680139B3
:104D90000029A96006DB2968481C28604FF0300014
:104DA000087007E029463020CDE91E2300F0B8F94D
:104DB000DDE91E23013243F10003D6E7DDE91C01E2
:104DC00080185941DDE908BC584571EB0C010ADB3C
:104DD000013243F10003259907EB0209013900294B
:104DE0002591EBDA2AE0A96801390029A96006DBE0
:104DF0002968481C28604FF030000870E8E7294611
:104E00003020CDE91E2300F08BF9DDE91E23DFE71A
:104E1000DDE908BCFB175F4573EB0C0307F10109E3
:104E20000CDAAB68013B002BAB6004DB2B685A1C2F
:104E30002A60187002E0294600F072F901344F46EA
:104E40007DE7DDE91C0180185941DDE908BC5845C2
:104E500071EB0C0109DB013243F100032299BC180C
:104E6000013900292291ECDA13E0A96801390029FF
:104E7000A96005DB2968481C286081F80090EAE7F2
:104E800029463020CDE91E2300F04AF9DDE91E2332
:104E9000E1E72046E11730ABCDE91C0103EB080741
:104EA000213F00220023C2EB0801002922DDDDE9B9
:104EB0001C01DDE908BC80185941584571EB0C0113
:104EC00012DAA96801390029A96005DB2968481CA4
:104ED00028603878087007E029463878CDE91E2325
:104EE00000F01EF9DDE91E23013207F1FF3743F11F
:104EF0000003D8E7B8F1000FACBF04EB0807271C8C
:104F00000E9B83B33A464FF000084FF00009741E21
:104F1000FB17C8EB0401002922DBDDE908BC12EB1A
:104F2000080043EB0901584571EB0C0113DAA9683D
:104F300001390029A96006DB2968481C28604FF068
:104F40002000087007E029462020CDE90E2300F05C
:104F5000E7F8DDE90E2318F1010849F10009D8E767
:104F6000002EA8BFBF19049B3B44049300E00494A7
:104F7000DDF81C80049C04945346FFF782B902FBC1
:104F800009391AF8017BFFF7F1B9049831B0BDE88F
:104F9000F08F00BF70B5C468A50717D0B2F5007FC9
:104FA00009D0B2F5806F03D0B2F5807F0ED102E058
:104FB000416A012303E0064D5E1EAE4206D822433D
:104FC00001610160C361C260002070BD012070BD3D
:104FD000FEFFFF0030B50B4C0B4D22680B4955F816
:104FE00022000B68013A45F823002260013B12B908
:104FF0003622226001E003B936230B6020F0004026
:1050000030BD00BF98030010BC0200109C030010CC
:105010000A4B172210B51A60094B3622094C0A496F
:105020001A60002300EB104244F8232001FB00F239
:1050300001330648372B1044F4D110BD98030010FB
:105040009C030010BC020010CD0D0100E119D666D2
:1050500010B5421C830705D010F8013B002BF9D195
:10506000801A10BD034650F8041BA1F1013424EA54
:10507000010414F0803FF5D011F0FF0F0AD011F4B5
:105080007F4F05D011F47F0F14BF0346033302E0B6
:10509000023300E00133981A10BDFFFF38B50C4B06
:1050A0001A680AB90B4A1A60C41C1D6824F003046C
:1050B0002C44204600F0C2FA18B9054B28461C6063
:1050C00038BD054B0C221A604FF0FF3038BD00BFD1
:1050D000300500101807001034050010C36810B523
:1050E00023F02003C360436A82695B6804469A42E6
:1050F0000FD000F0EAF8E368626A23F4405323F02B
:10510000100343F01003E3605368A36123699360C5
:105110002360E36823F4804323F04003E36010BD81
:10512000F8B5CB68064623F400229F060C46CA60F9
:1051300002D50846FFF7D2FFA168E3684D1C0DDADF
:1051400098050BD443F49033E3606FF001022368B9
:10515000521AA2605A1C22601E707FE041F28A023D
:105160001A40022A1D4605D0002243F08003A260A7
:10517000E36051E04AF210011940B1F5004F0AD145
:105180000021204600F0A2F9E368990602D52046E6
:10519000FFF7A4FFE56845F4903315F4706FE36002
:1051A0001CD1606900F056FE50B16A0508D5636AEB
:1051B000236123600123E36145F49233E3600DE052
:1051C0004FF48050FEF7DAFA4FF48053E268E3615F
:1051D00045F494331A4320612060E26013F4106FA9
:1051E000216825691BD0636A9B688B422CBFC5EB85
:1051F0000301C5EB010149B9636A6A1C9A60226028
:10520000E269511EA160DA602E7027E0224628462E
:1052100000F0DAF80028EFD04FF0FF30F8BD4A1C5C
:1052200022600E70676A2268B9688A422CBFC5EB9B
:105230000201C5EB0101E2695B05FA6004D4F0B23A
:105240000A2801D091420ADB0023BD602246256076
:10525000A360284600F0B8F80028DDD1F0B2F8BD10
:1052600070B50D4606461046144600F0E1F82B785E
:10527000722B0AD0772B05D0612B22D1082348F25C
:10528000020204E00423022201E00023012215F8B7
:10529000011F2B2906D0622909D142F0040243F0F4
:1052A0000103F4E742F0030243F00203EFE71B07B8
:1052B000E260666107D502220021204600F006F96F
:1052C00001E0002070BD204670BD38B50446436A39
:1052D00005690168C0689B6820F40022E26000F064
:1052E0008202022A02D04FF0FF3038BD10F4803025
:1052F00016D0994238BF19468D4209D1636A002001
:105300009D60E368256023F48033A060E36038BDCE
:105310002246491B284600F057F80028EED0E2E765
:1053200038BDF8B515460023002206460F4600F0AA
:10533000B7FC20B100232B6000200021F8BDC7F38B
:105340000A5330463946A3F2FE348BB93246C7F3CE
:105350001303D70F03F4002647EA4303C3F31303F1
:1053600052001EB163F31301104601E0013CF0E767
:1053700040F2FE332C6063F31E51F8BD70B500237C
:105380001646002204460D4600F08AFC10B10020AB
:10539000002170BD40F2FE73C5F30A5232449A42B6
:1053A0002046294606DD064B22221A60054BD3E92A
:1053B000000170BD002AEADD62F31E5170BD00BF1E
:1053C00034050010886501002DE9F041D56880465C
:1053D000EB020E461446576905D5384600F037FDF6
:1053E00045F01005A061114B2B4053B1A16938461F
:1053F00000F036FD002810DB25F4003525F01005FF
:10540000E56032464146384600F030FD20F000436A
:10541000F61AA3691E44A66128B1E3684FF0FF3075
:1054200043F08003E360BDE8F08100BF100002009C
:105430002DE9F041C56888B0A9070446466A28D01E
:105440002A0719D4D0F81480076900F027F84046DD
:1054500000F0FAFC2B0502D53846FEF777F9AD0DC2
:10546000AD0515F1A54F07D12022216A684600F04D
:10547000FAFC684600F0D8F818220021606AFEF7AE
:10548000FFF8282200212046FEF7FAF86662002085
:1054900001E04FF0FF3008B0BDE8F08170B5044680
:1054A00018B1BDE8704000F0D5B80546064E301979
:1054B00000F0D0F82834002818BF4FF0FF35B4F5BD
:1054C000A07FF4D1284670BDEC0300102DE9F8430D
:1054D000C668414B044633400D469046002B77D0BA
:1054E000D0F81490484600F0B5FC074600286FD16C
:1054F000B8F1010F06D0B8F1020F08D0B8F1000FD3
:1055000066D129E0204600F069F8054424E04846C9
:1055100000F09DFCB0F1000ED4F80CC004DA4CF0A1
:105520008001E160012754E0606A83681A46A3693C
:105530001946236893422CBFC918891823691CF0A7
:10554000200FA1EB030303D042689342B8BF134678
:105550007345ACBFED187544002D39DB16F4005FC0
:10556000626A04D023689168994238BF9360A16948
:105570008D4210DB20689368D4F810E0834238BF76
:1055800003465818CEEB0000854204DCD06801EBDE
:10559000000C654506DB0023A360636046F020062F
:1055A00055600FE06D1AB10744BF281AA060F207DA
:1055B00044BFCEEB0303EB1A754448BF636025601C
:1055C00026F0200626F4032626F04006E66000E0DA
:1055D00002273846BDE8F88303001000C3689A0725
:1055E00005D1104B21221A604FF0FF30704713F4A1
:1055F000002F03F020030AD013B1436A586804E077
:105600000268836900691344181A0138704713B19E
:10561000436A586870470268836900691344181A1E
:10562000704700BF3405001010B50446FFF710FDA9
:1056300001462046BDE8104000F00FBC044B23B1EA
:10564000984234BF0020012070471846704700BFC1
:1056500000000000C26870B512F00303044619D0C0
:10566000930604D5436A5D68FFF738FD04E00568DA
:1056700083692B4405695D1BE368204623F440538E
:10568000E360FFF722FE0646002229462046FFF788
:105690001DFF3346184670BD2DE9F04FC1F30A5483
:1056A000002C54D040F2FF76B44250D0C3F30A55D8
:1056B000002D4CD0B5424AD0C1F3130E4FEAC22898
:1056C0004EF4801EA8FB00ABAEFB0889520D1BEB0D
:1056D000080642EAC3224FF0000747F1000742F0F4
:1056E0000042E0FB0267BC46B34600271CEB0906FC
:1056F00047F10007E2FB0E674B40B7F5801F2C44D3
:1057000003F000434BEA9A0A4BD2B6194FEADA7219
:105710007F41A4F5806416434FEA4A0A4FEADA72E1
:10572000B61840F2FD7247F10007BAF1004F354656
:1057300008BF26F00105944236D9002CA4BF43F0DF
:10574000FF4343F4E00300201946BDE8F08F81EAEF
:105750000302490011F5001F02F0004213D25B0062
:1057600013F5001F17D313F5001F0DD8490D490578
:10577000002069B15B0D5B0553B142F0FF4242F47A
:10578000E001BDE8F08F0AD000200A49BDE8F08FA3
:105790000849BDE8F08F00201146BDE8F08F5B009E
:1057A000E1E7A4F2FF34B9E73B4303EB0451284699
:1057B000BDE8F08F0000F87F2DE9F0478846C1F37F
:1057C0000A51002953D040F2FF74A1424FD0C3F3D5
:1057D0000A5CBCF1000F4AD0A44548D04FEA505AA9
:1057E0004FEA5259C402D6024AEAC82049EAC32203
:1057F00040F0004542F00047BD4208BFB442CCEB48
:10580000010C88EA030863D20CF2FD3C79084FEAE8
:1058100036003423002200E0013B8D4208BF844261
:105820004FEA420204D3241A65EB010542F001025B
:1058300024196D41202B65D0002BEDD18D4208BF7E
:10584000844203D3013208BF0EF1010E40F2FD7114
:105850008C4508F0004341D9BCF1000FA4BF43F0D0
:10586000FF4343F4E00300201946BDE8F0874FEA08
:10587000480212F5001F1FD8580010F5001F1BD852
:1058800048EA0301C1F30A514C05C9B1540D88EA35
:105890000303640503F00043B4B1440D640554B33D
:1058A00010F5001F4FF000001FD112F5001F14BFAC
:1058B00019461549BDE8F08700201349BDE8F08777
:1058C00011492046BDE8F08719462046BDE8F0871B
:1058D0006D084FEA34040CF2FE3C97E703EB0C53DF
:1058E00003EB0E011046BDE8F08743F0FF4343F49D
:1058F000E001BDE8F08743F0FF4343F4E0012046B8
:10590000BDE8F087964687E70000F87FF0B591EA9A
:10591000030400F1C68099420D4606466FD25640F8
:1059200004F10041724056404D404B4040F2FF7040
:105930002C0D24F400618142A4EB135700F09980F0
:105940008F4261D0C5F31305C3F313031F2F45F432
:10595000801543F480135CD8C7F1200003FA00FEE1
:1059600022FA07F14EEA0101FB40711AED1A8E424C
:1059700038BF05F1FF3512FA00F306D001394F1C8C
:10598000C3F1000308BF05F1FF3515F4C01F5CD15A
:10599000DB0FCA0F43EA410342EA450252EA03051C
:1059A00000F09480510BA4F1020508D1190E41EAD0
:1059B0000222510BA5F108054FEA0323F6D0510C42
:1059C00004D1190F043D41EA02121B01D10C04D18C
:1059D000990F023D41EA82029B00110D04D1D90FBB
:1059E000013D41EA42025B00E40AB4EBD52F4FF0DF
:1059F000000006BF02EB05511846E107F0BD9042DA
:105A000094D8994292D18AE7002F38D13946384646
:105A1000F0BD352F25D8203F23FA07F1711A8E42A9
:105A2000C7F1200038BF05F1FF3522FA07F78340A0
:105A3000120643EA07033ED043F0FF0301394E1C30
:105A4000C3F1000308BF05F1FF35E80241D4013C72
:105A500062052DD0DE0FCA0F42EA450546EA41062F
:105A60005B00002B25F480150CDB05EB0451304660
:105A7000F0BD2B0312D137B330462946F0BD29467D
:105A80003046F0BD013608BF0135B3F1004F08BF05
:105A900026F0010605EB04513046F0BD00200E490A
:105AA000F0BD03F100452B46BDE8F04000F016B80C
:105AB00021051046F0BD002BC0D1EA02C7D525F460
:105AC00080150E46D1E704493846F0BD29462846E0
:105AD000F0BD0E46C5E700BF0000F87FF0B591EAC3
