:10000000F07F00103F010100090101000B01010018
:100010000D0101000F010100110101009079F9EFBC
:1000200000000000000000000000000013010100BB
:10003000150101000000000017010100D5170100A3
:100040001B0101001B0101001B0101001B0101003C
:100050001B0101001B0101001B0101001B0101002C
:100060001B0101001B0101001B0101001B0101001C
:100070001B0101001B0101001B0101001B0101000C
:100080001B0101009D1701001B010100311301003C
:100090002D110100151601001B0101001B010100BB
:1000A0006D0401001B0101001B0101001B01010087
:1000B0001B0101001B0101001B0101001B010100CC
:1000C0001B0101001B0101001B0101002062010056
:1000D00000010010A402000020620100F07F001067
:1000E000000000002062010000C0072000000000A6
:1000F000A40300107C040000F07F0010000000004A
:1001000000C0072000000000FEE7FEE7FEE7FEE774
:10011000FEE7FEE7FEE7FEE7FEE7FEE710B5002399
:10012000934203D21C585C500433F9E710BD0023FE
:100130008B4203D200221A500433F9E7704710B5FE
:100140000C4C0D4B9C4207D294E803000C3454F83D
:10015000042CFFF7E3FFF4E7084B9C4205D294E838
:100160000300FFF7E4FF0834F6E701F01DFE03F09B
:1001700069FAFEE7CC000100F0000100080101006F
:10018000032A05D10B8A23F001031B041B0C0B82ED
:1001900000207047024B4FF480721A820020704793
:1001A000E0030010022A38B50C4602D0042A26D0FB
:1001B00037E01D4B01211B68A2681B685B6C9847E8
:1001C000638A80B213F0040FE081638A0AD023F0BF
:1001D00004031B041B0C638218B3638A9BB243F0B5
:1001E00002031DE01B071CD5638A23F008031B04D0
:1001F0001B0C6382638A9BB243F0010310E04B8ABD
:1002000003F006036BB9084B01211B68A2681B6849
:100210009D6C4FF40073A847638A9BB243F00403BC
:100220006382002038BD00BF4C010010F0B5224CA5
:1002300093B00F46154606464822206000216846C6
:1002400003F00CFA6B68F8680093AB680221019325
:1002500000F01AF90A210290F86800F015F9174F1A
:10026000174B03900F933B6830465B6969465B68A8
:10027000221D9847F0B9009B3046A36003F5007338
:100280000093019B0321A3F5007301933B680D4A82
:100290005B68D3F804C02346E04738B93B68304672
:1002A0005B6802215F68084A2346B847009B6B6081
:1002B000019BAB6013B0F0BDE00300104C010010D7
:1002C0009501010081010100A501010038B5134C21
:1002D000E58905B3A94234BF0A462A46A16895B20A
:1002E00003F0BAF9A3890E4A2B449BB24FF08071F8
:1002F000A381C2F88010E2899A4208D8638A23F069
:1003000002031B041B0C63820023E381A381044BC3
:100310004FF080721A60284638BD00BFE00300101D
:1003200000E100E0F8B5114C0246258A0B4605F4C1
:100330008075ADB2ADB1218AC90714D4218A0C4DA4
:1003400089B241F0010121820A494FF080760968A3
:10035000C5F88060096820680F6D8121B8472E605C
:10036000F8BD2846F8BD0020F8BD00BFE00300102E
:1003700000E100E04C01001008B5044B044A1B6882
:1003800010681B6801219B68984708BD4C0100104C
:10039000B003001010B598B001F0A8FD0124294861
:1003A00002210922012301F0D7FE264800211D2247
:1003B0000823009401F0B4FE1E2208230094214873
:1003C000002101F0ADFE204B1222C3F8F42FD3F828
:1003D000F82F02F01202122AF9D10021442207A8B4
:1003E00003F03CF9194B1A4C079303238DF828307E
:1003F000184B204608934FF400630993164B02A94B
:100400000293164B07AA0393154B059304930023FD
:100410000693144B1B681B685B68984708B1002063
:100420000DE0206802A907AAFFF700FF0028F6D117
:100430000D4B4FF080721A60FFF79EFF012018B03D
:1004400010BD00BF00C0024000C0005000C20050FC
:10045000B003001000C00720A45F01006C5F010022
:10046000000100104C01001000E100E008B5044B51
:10047000044A1B6810681B68DB68984708BD00BF0A
:100480004C010010B003001003783BB14278042AFD
:1004900002D142798A4202D01844F5E718467047E3
:1004A00010B5044C04482168FFF73CFF002323608B
:1004B00010BD00BFA8030010380400102DE9F84358
:1004C000002681460C46B046104D09EB080128680D
:1004D0002218402A0E4A0ED9C0F1400710443A466D
:1004E00003F0BAF82B68E41B3B442B60FFF7D8FFFE
:1004F000B8440644E8E71044224603F0ADF82B6800
:10050000301923442B60BDE8F88300BFA803001016
:100510003804001010B54AF6CD330380C378044682
:1005200023B9084A1378591C1170C370204608215A
:10053000FFF7C4FFA0686168FFF7C0FFBDE8104087
:10054000FFF7AEBFA40300100FB410B592B014AB08
:1005500053F8042B04AC20463821009303F038FEF6
:10056000002807DB0323029001A88DF806300394CE
:10057000FFF7D0FF12B0BDE8104004B07047000094
:100580002DE9F041444B90B0444C68464021A360B3
:10059000FFF79CFE00268046464579DA404B1DF861
:1005A0000620197859B9AB2A03D13E4901220A70B5
:1005B00011E0CD2A6AD13B4A117001220BE00129DA
:1005C0000BD13849097819B1CD2A03D1022202E0B2
:1005D000AB2AFAE700221A7058E0022902D1A27071
:1005E0000322F8E7032907D1E27004221A702E4A89
:1005F00000231360636049E0042918D12949087871
:10060000294918B10868C0F1030000E00868C0007B
:100610008240606810440A6860600132042A0A60FF
:1006200034D105221A70204B00221A602EE00529D1
:100630002CD11D49A56808682A540A6801320A604D
:1006400061688A4222D100220C201A7003F008F857
:10065000124B0546586803F003F80746C5B1B8B118
:100660000E490C22284602F0F7FFA168384662685E
:1006700002F0F2FFAF600A20294600F0C3FE28B95D
:10068000384603F051F8284603F04EF8013683E768
:1006900010B0BDE8F08100BFF40300102C0400107E
:1006A000AC030010A5030010B4030010044B9860C5
:1006B0005A681206FCD5024B9868C0B2704700BF5A
:1006C0000000024070B505460E460024B44204DA2C
:1006D000285DFFF7EBFF0134F8E770BD70B5054604
:1006E0000E460024B44205DAFF20FFF7DFFF28554D
:1006F0000134F7E770BD0000044B4FF48032DA613B
:100700005A69D20301D500BFFAE7704700C009203B
:10071000044B4FF480329A615A69D20301D400BF6E
:10072000FAE7704700C00920104B10B51A68104C4A
:1007300042F480321A60FFF7EBFF204601F0F4FD2F
:1007400020460C4901F0DCFD0B4B4FF400621A808F
:1007500000229A70DA70236823F4716323F00C038B
:1007600043F4006343F00403236010BD00C009207C
:100770000000024040420F00B803001008B5FFF728
:10078000C7FFBDE80840014801F0EABD0000024093
:1007900008B500F00EF9BDE80840642001F038B853
:1007A00008B5FFF7C1FF0C4B1A6822F400221A604B
:1007B0001A6C42F480721A64FFF7EAFF074B1B6859
:1007C000186800F075F901460028F5D10246BDE829
:1007D000084000F049B900BF00C00920B80200106D
:1007E00037B50546002002460C46014600F03CF9AC
:1007F000022000F099F90021032208238DE80C0063
:10080000284622460B4600F017F903B030BD13B559
:10081000044600200146024600F026F9022000F0BE
:1008200083F90021032208238DE80C0020460A46A4
:100830000B4600F001F902B010BD000070B505468E
:100840000E4648F2A06400F099F8442000F0A2F8A7
:1008500000F0A2F8FF2805D15DB12846314600F02E
:10086000A3F806E0013CA4B200F08AF8002CEAD11B
:10087000FEE700F085F8024B01221A70FF2070BDE0
:10088000BC03001000200146FFF7D8BF70B50D462D
:10089000012814BF06460226084C237813B9FFF737
:1008A000F1FFF9E700F06AF83046294600F077F8E2
:1008B00000F066F80023237070BD00BFBC03001079
:1008C000F8B5054616461F460A4C69B900F056F8B9
:1008D000284600F05FF83046394600F065F800F031
:1008E0004FF800232370F8BD2378002BEED1FFF7DB
:1008F000C9FFF9E7BC030010F8B5054616461F46C8
:100900000A4C69B900F03AF8284600F043F830463E
:10091000394600F044F800F033F800232370F8BDA6
:100920002378002BEED1FFF7ADFFF9E7BC030010F1
:10093000014B00221A707047BC03001038B51446F2
:100940001D46FFF7A3FF20462946BDE83840FFF7C4
:1009500075BF0000034B32209A6942F480729A619D
:1009600000F056BF40C00920034B3220DA6942F440
:100970008072DA6100F04CBF40C00920FFF7BCBEB6
:10098000FFF7C6BE024B5869C0F3C040704700BFB6
:1009900000C00920FFF78ABEFF20FFF787BE03468D
:1009A00008461946FFF78EBE034608461946FFF76C
:1009B00095BE08B5FFF7CEFF642000F029FFFFF7D2
:1009C000D3FF642000F024FFBDE80840FFF7B0BF6C
:1009D00010B50D4C01200822234621462070FFF758
:1009E000ADFF0A4B22781A706278DA70A2789A709A
:1009F000E2781A712279DA7162799A71A2791A729F
:100A0000E2795A7210BD00BF78040010880400100B
:100A100010B5084B312499701A71110A00225870D0
:100A2000D9701C705A7106201946BDE81040FFF7B6
:100A30002DBF00BF78040010F0B50A4C9DF814607B
:100A40009DF818503227A170110A6070E17027706C
:100A500022716371A671E57121460820BDE8F0405E
:100A6000FFF714BF7804001010B50F4C202323703B
:100A70006070A170E2702346082204202146FFF72F
:100A80005DFF0A4B22781A7062785A70A2789A70C9
:100A9000E278DA7022791A7162795A71A2799A71C0
:100AA000E279DA7110BD00BF7804001088040010EC
:100AB00038B50446207828B3102804F1010201D982
:100AC000042038BD0023E1184D7810495D540133EE
:100AD000DDB28542F7D3441EE4B20134144400224F
:100AE0001346FFF72BFFFF280DD1FFF74BFF014601
:100AF0000028DFD10246FFF7B7FF054B9B791B07A4
:100B0000DED4D7E738BD022038BD00BF780400101E
:100B10008804001003493423487002200B70FFF74B
:100B2000B5BE00BF7804001010B5084C15236070E6
:100B300002202370024623462146FFF7FFFE044BA6
:100B400022781A7062785A7010BD00BF78040010C5
:100B50008804001002460B4666200021FFF7CCBE39
:100B600002460B4677200021FFF7AABE10B50B4CBA
:100B7000102323700622234601202146FFF7DEFEC4
:100B8000074B22781A7062785A70A2789A70E278CD
:100B90005A7122791A7162799A7110BD7804001025
:100BA0008804001010B50B4C162323700B0AA37099
:100BB000C2F307236070E170237162712346022241
:100BC00006202146FFF7BAFE034B22781A7062789E
:100BD0005A7010BD780400108804001010B50E4C37
:100BE0002223237060700822234601202146FFF74C
:100BF000A5FE0A4B22781A7062785A70A2789A7011
:100C0000E278DA7022791A7162795A71A279DA710E
:100C1000E2799A7110BD00BF7804001088040010BA
:100C2000044B1A6842F400721A609A6942F4007226
:100C30009A61704700C00920054B4FF400225A61A9
:100C4000DA60044B4FF40012C3F880211A60704739
:100C50008080024000E100E008B5FFF7E1FF0F20CF
:100C600001F0A2F90B4BDA6942F40072DA61FFF786
:100C700097FDFFF7ADFEFFF779FF074B002283F8E2
:100C80001523FFF7D9FF054B1B681879BDE808400D
:100C9000FFF7BDBD00C0092000E100E0B802001070
:100CA000034B4FF40012C3F88021C3F88020704733
:100CB00000E100E008B5FFF7F3FFFFF74BFEFFF799
:100CC0005DFD034B9A6942F400729A6108BD00BF52
:100CD00000C009200020132100F0D8BC00201321FF
:100CE00000F0B4BC2DE9F84F0020394E00AF0146AA
:100CF0000246FFF7B9FEFFF7EDFFF57915F028057D
:100D00000AD04FF4FA7000F051FB09200021BD46D3
:100D1000BDE8F84F00F076BBB37813F0110F51D057
:100D20002A4628462946FFF73DFF73783478E8467F
:100D300003EB0424A4B204F10803DB08A8EBC3020C
:100D400095460DF80450E9462546EB46D5B1202DD1
:100D500094BF5FFA85FA4FF0200A59465046FFF7D4
:100D6000FFFECAEB0505D344ADB2002002460146A2
:100D7000FFF77AFEF378DA06E8D4154B9B78DB07A9
:100D8000F3D5E3E7B4F5806F4FF0080088BF4FF468
:100D9000806402F065FC0546204602F061FC0646D0
:100DA0004DB14946224602F057FC2E606C6002208D
:100DB000294600F027FB074B00211B681879FFF735
:100DC0000FFDC546BD46BDE8F84FFFF787BF00BF22
:100DD00088040010B802001010B5134B1124DA700B
:100DE000124A587010789970187150781C705871A8
:100DF00090789871D078D8711079187250795872AB
:100E000090799872D079D872107A1873507A587392
:100E1000907AD27A9873DA73081DC0B21946BDE889
:100E20001040FFF733BD00BF7804001088040010A5
:100E3000044B1F221A70FF225A7012200221112225
:100E4000FFF7CABF880400102DE9F04F01F1090334
:100E500083B0DB08EA46AAEBC30200AF95460E4614
:100E600005468C1CFFF736FF0320FFF753FE0020DA
:100E700001460246FFF7F8FD0120FFF755FE4FF04F
:100E8000020929463246374D0DF1020002F0E4FB1B
:100E90000023122049460D222B704FEA162B85F8AD
:100EA0000190F6B2FFF798FF1220494611226E70AA
:100EB00085F800B0FFF790FF01238DF80160E84648
:100EC0008DF800B0A4B2FB712E4623B2002B3FDD9B
:100ED000FA791AB9102B03DCE5B202E0402500E0F4
:100EE000102528464146FFF735FEFB79641BA4B266
:100EF00043B11D4B80211B6800221879FFF788FD44
:100F00000023FB71002001460246FFF7ADFDF37997
:100F100013F0280F0CD0FFF7CDFE322000F078FC44
:100F2000642000F0B9FCFFF797FEFFF781FF13E0A4
:100F30000C4B9B789A0604D524B204EAE474A4B25C
:100F400004E09B07DED523B2002BDBDDA844BCE721
:100F5000FFF76EFFFFF7C2FE0C37D546BD46BDE872
:100F6000F08F00BF88040010B80200104FF47A70B0
:100F7000014900F079BC00BFE10F01000A4B10B538
:100F80009A690A4C42F400329A61322000F040FC27
:100F900020460021012200F08EFF20460121002280
:100FA000BDE8104000F07BBF20C009200040034096
:100FB00007B5FFF7E3FF002108480A4600F059FF94
:100FC0000128F8D100210DF10602044800F046FF87
:100FD000BDF8060003B05DF804FB00BF004003400D
:100FE00010B5FFF7E5FF0D4C2080FFF7BFFF22880B
:100FF00040F26B7392B29A4203D80620002100F0AF
:1010000001FA228840F2A36392B29A4205D8BDE861
:1010100010400720002100F0F5B910BDBC020010FF
:10102000002108B50A46044800F045FF034BDA6981
:1010300042F40032DA6108BD0040034020C00920BC
:1010400008B5064B06481A68064942F400321A6091
:1010500000F0DEFEBDE80840FFF7E2BF20C0092037
:1010600000400340C0030010044BDA6942F008025C
:10107000DA61DA6942F01002DA61704740C0092093
:10108000184B1A6822F480021A601A6822F40012BF
:101090001A601A6C22F480521A641A6C42F0080228
:1010A0001A641A6C42F010021A640F4BD3F84821EC
:1010B00042F00402C3F84821D3F84C2142F0040264
:1010C000C3F84C21D3F8402142F00402C3F8402178
:1010D000064B202283F814234FF480121A60FFF786
:1010E000C3BF00BF00C0092000C00F4000E100E006
:1010F000012805D002D3022808D07047FFF7B4BFFB
:10110000074BDA6942F00802DA6104E0044B9A699D
:1011100042F008029A619A6942F010029A6170479F
:1011200040C009200120FFF7E3BF000008B5FFF72A
:101130009BFFFFF7F7FF044BD3F8402142F0040276
:10114000C3F8402108BD00BF00C00F40044B1A681F
:1011500042F480721A60DA6942F48072DA61704790
:1011600000C00920034B00201A6842F480721A6004
:10117000FFF7ECBF00C009200C4B1A6822F4006294
:101180001A600B4BD3F8482142F00202C3F8482101
:10119000D3F8402142F00202C3F84021054B20223F
:1011A00083F813234FF400221A60704740C00920CF
:1011B00000C00F4000E100E0034B5869C0F3C020BD
:1011C00080F00100704700BF40C00920012805D011
:1011D00002D3022804D07047032002E0052000E07B
:1011E0000420002100F00EB970B54D4D2E782C462C
:1011F000022E39D0032E51D0012E40F09080FFF7FF
:10120000DBFF68B1474B1A68B2F5C87F08DB464977
:1012100000224FF400202A7008601A6030467AE0FD
:10122000FFF7CAFF08B13F4B40E0FFF7C5FF50B9D9
:101230003C4B1A68022A06DC3B4A4FF4002120701E
:101240001160186070BDFFF7B7FF002867D1354BFC
:101250001A68022A63DD18600223237005203349CF
:10126000BDE8704000F000BBFFF7A6FF28B10323E4
:101270002B702C4B00221A60F0E7FFF79DFF18B986
:10128000284B1A68632A11DDFFF796FF01460028F4
:1012900045D1244B1A68632A41DD23E0FFF78CFF18
:1012A00038B1204B1A68B2F5C87F02DA1A680132E9
:1012B000E1E7FFF781FF68B11A4B1A68B2F5C87F02
:1012C00008DB194900224FF40020227008601A60E0
:1012D000012020E0FFF770FF014670B9114B1A683A
:1012E000022A0ADC104A4FF4002021701060BDE889
:1012F00070400320196000F085B8FFF75DFF70B9FA
:10130000084B1A68022A0ADD074A4FF400212070B0
:10131000116018600220BDE87040FFF757BF70BD34
:10132000CC030010C803001000E100E0E911010047
:1013300008B50B4B1B785BB90A4B01221A700A4B9C
:101340004FF40022C3F880200520084900F08CFAF1
:10135000074BD3F8402142F00202C3F8402108BDF8
:10136000CD030010CC03001000E100E0E911010002
:1013700000C00F40054B20B99A6942F400129A61EF
:101380007047DA6942F40012DA61704720C0092020
:10139000034B00201A6842F400121A60FFF7EABFFC
:1013A00020C009200020FFF7E5BF000010B504466B
:1013B0000120FFF7DFFF20460249BDE8104000F0A2
:1013C00053BA00BFA513010010B504460120FFF772
:1013D000D1FF204600F01CFABDE810400020FFF7C6
:1013E000C9BF000010B5054C20232046044908223F
:1013F00000F0E0FE00232361E36010BD98040010BC
:10140000AC04001007B502AB8DF8040043F8081DCA
:101410000348694600F0D6FE03B05DF804FB00BF48
:101420009804001013B5044600B96C4604482146E0
:1014300000F0E1FEC0B200B1207902B010BD00BFE3
:101440009804001008B5FF20FFF7C8FB034BD878BD
:1014500010F1FF3018BF012008BD00BF8804001044
:101460002DE9F041184E0023184D33700323074631
:1014700088462B702B7801249C4003F099FD013C99
:1014800090FBF4F303FB1404C820604300F004FA5B
:10149000FFF7D8FF044620B138464146FFF7D4FC99
:1014A0000EE00A4A337812780133062AD8BF013297
:1014B000DBB2D4BFD2B20822042B33702A70D9D940
:1014C0002046BDE8F08100BFAD050010AC0500105E
:1014D000F8B500AF044600F034F882B2D31DDB0843
:1014E0006946A1EBC3018D466846002102F0B6F8BB
:1014F0006946204600F03CF8861E0DF1FF32F6B238
:101500006D46014616444FF6FF73B2424FEA132070
:101510000DD012F8014F4440E4B284EA141444EAB6
:10152000032383EA043383EA44139BB2EDE76A188A
:1015300002F8020C02F8013C2846FFF791FFBD4675
:10154000F8BDB0F815001530704710B500210446FD
:10155000172202F083F8237803F01F0343F02003DF
:101560002370637823F00C0343F00403637010BD11
:1015700070B5037805465A09012A0E4636D103F0A4
:10158000E30303700B7043784B7083788B70437860
:1015900013F0300F05D0C3780524CB7003790B719D
:1015A00000E003246B78C3F30112022A01D1023454
:1015B00002E0032A01D10834A4B22A78920709D4A0
:1015C0009B0707D06A7B631C3255AA7B9BB202340F
:1015D000A4B2F2546B7803F00303022B01D102345E
:1015E00002E0032B03D10834A4B200E00024301938
:1015F000B5F81520D5F80F1002F02EF8B5F8153013
:101600001C44A4B2621C002392B23355A01CB354F4
:1016100080B270BD10B50B4CA3681A0304D5FFF758
:1016200061FB4FF40023E360A36A9B0403D5054BE1
:101630004FF40052DA62044B4FF40012C3F88021D9
:1016400010BD00BF8080024000E100E00D4B4FF470
:101650000012C3F8802038B9012000FA01F10A4BCA
:101660005A691143596108E0022806D1012000FAA5
:1016700001F1054B5A6B11435963024B4FF40012B1
:101680001A60704700E100E0808002400E4B4FF48A
:101690000012C3F8802040B9012000FA01F10B4B81
:1016A0005A6922EA0101596109E0022807D10120A3
:1016B00000FA01F1054B5A6B22EA01015963024B12
:1016C0004FF400121A60704700E100E08080024091
:1016D000BFF34F8F044A054BD16801F4E0610B431F
:1016E000D360BFF34F8FFEE700ED00E00400FA0582
:1016F00008B504280DD8DFE800F00303050709004A
:10170000032004E0072002E00F2000E03F2000F06B
:1017100077FCBDE8084000F079BC0000014800F00B
:101720003BBD00BFC0C00F4008B5024B00221A707D
:10173000FFF7CEFFF07F001008B5024BAA221A7007
:10174000FFF7C6FFF07F001038B5114C0125204689
:1017500000F078FD0F4900220A604A608A60204646
:1017600040F2DE72CD608D61CA6100F0A2FD2046BC
:1017700029462A4600F08FFD03232360064B4FF4D1
:1017800000321A6020462946BDE8384000F074BD9A
:1017900000400240B005001000E100E010B5084C28
:1017A0002368DA0705D5012323602046054900F0A8
:1017B00093FD23689B0702D5014B02221A6010BDDE
:1017C00000400240B0050010014B01221A70704722
:1017D000CE03001038B5002401230A4AA558A118E9
:1017E0003DB1094AA25822B1013D0D6005B99047AB
:1017F00000230434802CF0D113B1044B00221A6072
:1018000038BD00BF50060010D005001010E000E009
:1018100038B500F0D5FD044600F0CCFD054600F0DB
:10182000C9FD401BA042FAD338BD000008B500F046
:1018300055FB0A4B1A684FF47A73B2FBF3F2013A84
:10184000B2F1807F09D2064BF8215A60054A82F82E
:10185000231000229A6007221A6008BDD0060010EB
:1018600010E000E000ED00E010B50023084A52F857
:10187000234044B942F82300064ABDE8104042F82C
:101880002310FFF7D3BF0133202BEFD110BD00BFD2
:1018900050060010D005001010B5074C0023074972
:1018A0002370FFF7E1FFFFF7C1FF237813B9FFF7BC
:1018B00035FFFAE710BD00BFCE030010C9170100C5
:1018C00008B500210C20FFF79DFDBDE808404FF44E
:1018D0007A700149FFF7C8BFC118010090B585B003
:1018E000426800AF0023FB71BB71D31D23F00703D7
:1018F000ADEB030D044621686846BA60C7F80CD00A
:1019000001F0AAFE381DFEF705FE206801F00CFF6D
:10191000204601F009FF1437BD4690BD10B583780D
:10192000044613B1012B05D00EE0A1888068FFF7B3
:1019300097FD09E083681B7823B1012B04D1FFF7E1
:10194000FBFE01E0FFF7F0FEA06801F0EDFE20468F
:10195000BDE8104001F0E8BE70B5534B8CB00024D8
:101960001C7000F0BBFA0120FFF7C2FE00F0FCFC87
:10197000FFF7EAFE00F04AFB4C4B0F20D3F888300B
:1019800000F012FB0F2000F00FFBFFF72BFDFFF71D
:10199000FFFCFFF775FBFFF7E5FB0120FFF7EAFC13
:1019A000FA20FFF779FF2046414CFFF7E3FCFFF7F1
:1019B000E3FBFFF745FBFFF7D9FAFFF74DF93220BC
:1019C000FFF76AFF21463B4800F086FC94E80C00D4
:1019D0005A43A36860695343584303F007FBFEF77B
:1019E000D9FC35494FF47A70FFF73EFF3220FFF7FC
:1019F000EBFC3220FFF750FF3220FFF7E5FC3220EE
:101A0000FFF74AFF6420FFF7DFFCFEF7B9FD6846E9
:101A1000FFF708FD02380A2843D8DFE800F00A4241
:101A2000424242424242060E20000098FFF776FFF3
:101A300037E00098FFF752FF33E0204B06AA03F18E
:101A40001806154618685968144603C40833B3428B
:101A50002246F7D129461A48FEF776FD21E0194BB8
:101A600002AA03F10806154618685968144603C40B
:101A70000833B3422246F7D118681B7920602371DE
:101A800006A8FFF762FD2846CDF8275003F0CCFAF0
:101A90000130ADF82D0006A8FFF71AFD6420FFF70E
:101AA00085FCFFF73BFEB0E7F07F001000C00F4061
:101AB000B005001000400240C1180100E45F0100C1
:101AC000E05F0100FC5F010010B5914891494022A0
:101AD00000F04BFB90490B6843F010030B600B6860
:101AE00043F020030B600B6843F040030B600B686E
:101AF00043F080030B600B6843F480630B600B685A
:101B000043F400630B60854B1A6842F001021A60CF
:101B10001A6842F002021A601A6842F010021A6053
:101B20001A6842F480721A601A6842F400721A60ED
:101B30001A6842F480621A601A6842F480421A609D
:101B40001A6842F400421A601A6842F480321A603D
:101B50001A6842F400221A601A6842F480021A607D
:101B60001A6842F400021A601A6842F080721A6021
:101B70001A6842F000721A601A6842F080621A60B5
:101B80001A6842F000621A601A6842F080521A60C5
:101B90001A6842F000521A601A6842F080421A60D5
:101BA0001A6842F000421A605D4A106840F0010075
:101BB0001060106840F002001060106840F00400EF
:101BC0001060106840F020001060106840F0400085
:101BD0001060106840F080001060106840F4005001
:101BE00010605048046844F080540460046844F075
:101BF00000540460CC6944F01004CC61CC6944F01A
:101C00002004CC61CC6944F04004CC61CC6944F040
:101C10008004CC61CC6944F48064CC61CC6944F428
:101C20000064CC61D96941F00101D961D96941F001
:101C30000201D961D96941F01001D961D96941F432
:101C40008071D961D96941F40071D961D96941F4D0
:101C50008061D961D96941F48041D961D96941F480
:101C60000041D961D96941F48031D961D96941F420
:101C70000021D961D96941F48001D961D96941F460
:101C80000001D961D96941F08071D961D96941F008
:101C90000071D961D96941F08061D961D96941F098
:101CA0000061D961D96941F08051D961D96941F0A8
:101CB0000051D961D96941F08041D961D96941F0B8
:101CC0000041D961D36943F00103D361D36943F083
:101CD0000203D361D36943F00403D361D36943F0B2
:101CE0002003D361D36943F04003D361D36943F048
:101CF0008003D361D36943F40053D361C36943F0D4
:101D00008053C361C36943F00053C36110BD00BF7A
:101D100000C002400C60010000C0092020C0092062
:101D200040C0092080C0092038B51E4C0020C4F8EE
:101D30000C0100F053F92023C4F8A031D4F8A031ED
:101D40005A06FBD5174B002001240246C3F80C416C
:101D5000132100F011F90020214600F0E7F80320DC
:101D600000F04EF9092000F059F90E4BD3F8882005
:101D70001D4612F0806FF8D00020032100F0D6F845
:101D8000D5F88830074C9B01FAD501200321024683
:101D900000F0F2F82368C3F30B0343F4804323609D
:101DA00038BD00BF00C00F4008B5FFF78DFEFFF73C
:101DB000BBFF104BD3F8C02022F01002C3F8C020A4
:101DC000D3F8C02022F00802C3F8C0200A4B4FF419
:101DD00080329A6099684FF0805301F17042D25876
:101DE00043F8042B054A9342F7D1034B4FF080523E
:101DF0009A6008BD00C00F4000ED00E0C400001074
:101E0000036823F0E06343EA01610160704700006A
:101E100038B504460C200D4600F0C6F80C4A4FF4C5
:101E2000706363630023E3600C202A602B716B7185
:101E300000F06BF9074B084A03EB4000B0FBF2F3EC
:101E4000013BDBB21B0243F40013236038BD00BF2B
:101E5000400D0300405DC60080BA8C01043150F88B
:101E60002130002BBDBFC3F30B13012013800020D2
:101E70007047012A0AD007D3022A0ED1036B1B0C2C
:101E80000CBF002001207047006B02E00831006B9E
:101E9000C9B2C84000F00100704700207047012916
:101EA00007D9036812B143F0006301E023F0006337
:101EB0000360FFF7A5BF012A036803D18A401A43D4
:101EC00002607047012202FA01F123F0E06303602F
:101ED000036823EA010101607047000008B500F0C3
:101EE0000BF9014B186008BDD0060010012003213A
:101EF000024610B500F040F80120014600F016F847
:101F0000094BD3F8A8201C4612F4806FF8D00120AA
:101F1000032100F00BF8D4F8A8309B05FBD51F2057
:101F2000BDE8104000F040B800C00F40400100F193
:101F3000804303F57C23D3F880201143C3F880103D
:101F4000024BAA221A5055221A5070478CC00F40DB
:101F5000400100F1804303F57C23D3F8802022EA7E
:101F60000101C3F88010034BAA221A5055221A50BF
:101F7000704700BF8CC00F4010B941EA024101E038
:101F800041EA4211400100F1804303F57C23012224
:101F9000C3F88410C3F88020024BAA221A5055229D
:101FA0001A5070478CC00F40012101FA00F0034B1A
:101FB000D3F8C4200243C3F8C420704700C00F40C8
:101FC000012101FA00F0044BD3F8C42062EA0002B8
:101FD000C3F8C420704700BF00C00F4001284FF075
:101FE00002014FF0000001D1FFF7A0BFFFF7B0BF23
:101FF000024BD3F88800C0F34060704700C00F4028
:10200000014BC3F80401704700C00F40024BD3F8E6
:102010000401C0B20130704700C00F40044BD3F838
:10202000082122F00F021043C3F80801704700BFD7
:1020300000C00F40420051090B4B6A3153F8213068
:1020400002F01F02D34013F0030309D0012B08D084
:10205000022B06D00D3802288CBF0823062300E08F
:1020600004231846704700BF00C00F40094BD3F847
:102070000C3103F00303012B06D003D3022B06D14E
:10208000054B02E005487047054B18687047002073
:10209000704700BF00C00F40D85F010000093D003D
:1020A000DC5F010038B50B4BD3F8880010F080706E
:1020B0000FD0D3F88450D3F88440FFF7D7FFC5F38F
:1020C0000E0501356D006843C4F307440134B0FBCD
:1020D000F4F038BD00C00F4008B5FFF789FF28B104
:1020E000012807D1BDE80840FFF7DCBFBDE8084084
:1020F000FFF7BCBF002008BD10B5FFF7EDFF044699
:10210000FFF784FFB4FBF0F010BD38B50546FFF7CC
:10211000F3FF04462846FFF78DFFB4FBF0F038BD0F
:10212000F0B5490001EB121102F00F025200032535
:1021300095409DF8146093409640C9B250F82170C4
:10214000ED432F403E4300EB810440F82160216CB9
:102150000D401D432564F0BD13B503F00304009446
:102160009B08FFF7DDFF02B010BD2DE9B8418046A6
:102170000D4617460024BC420CD015F8242055F813
:10218000243002F007014046D2081B0AFFF7E4FFA3
:102190000134F0E7BDE8B881036823F0030303606E
:1021A000034B1A6922F004021A6130BF704700BF66
:1021B00000ED00E080E80A00002382600361C36054
:1021C0000120704770B504460668C06822696368DC
:1021D000821A9A420DDAE568A268013B03EA05001B
:1021E00002FB006001F038FAE36801200133E3608C
:1021F00070BD002070BD38B5C268036904469A42BC
:1022000005680ED043688268581E2369034008465B
:1022100002FB035101F020FA2369012001332361FD
:1022200038BD002038BD836843F0020383608368B3
:102230009A07F8D5836803F01103836083689B07CE
:10224000F8D4704710B504460920FFF7ADFEA36827
:10225000204603F01203A360A36843F01003A360B9
:10226000FFF7E1FF032323602368002BFCD1FF224B
:10227000E3602261236410BD012907D1836843F024
:10228000010383608368DB07F8D57047836803F038
:10229000120383607047012AC36802D11943C160E9
:1022A0007047DBB223EA0103C360C3681942FCD163
:1022B0007047826830B5D30744BF02F012038360D1
:1022C000002351F8234003F108050133082B40F89F
:1022D0002540F6D1826030BD30B5FF22036A9A42B4
:1022E0000DD0026A0C460A60012303F1080550F87C
:1022F00025500133082B44F8045FF6D1EEE730BDDA
:1023000038B5044608200D46FFF7FFFEB0FBF5F098
:10231000072898BF0820411C21F00101FE2928BF91
:10232000FE21E16038BD000010B504460820FFF72B
:102330003BFE2368204643F02003236023680749BF
:1023400023F4716323F00C0343F4006343F00403AC
:102350002360BDE81040FFF7D3BF00BF801A06001E
:102360000820FFF72DBE000010B50D4C204600F0F0
:102370002DF80723E360636843F001036360FFF710
:10238000BBFE084B400918604FF47A72064BB0FB55
:10239000F2F21A60054BB0FBF3F0054B186010BD6C
:1023A00000800040D0030010D403001040420F0012
:1023B000D8030010014B9868704700BF00800040B0
:1023C000014B1B6858437047D4030010094B9842D7
:1023D0000AD003F50823984208D003F580439842B9
:1023E00014BF0120172002E0022000E01620FFF7B2
:1023F000DBBD00BF00800040034600F00F0040003E
:102400001B0648BF01307047436810229A6019616B
:102410001A68D206FCD5704738B504461546FFF752
:10242000F3FF20462946BDE83840FFF7EDBF38B539
:10243000044608461546FFF7DFFF010441F4A0619A
:102440002046FFF7E1FF20462946BDE83840FFF768
:10245000DBBF436830229A6019611A689206FCD586
:10246000586970474FF40C7070470000044A002907
:10247000D0F8C801034908BF4FF48072FFF7CCBF02
:10248000000101000005FE00D0F8C83100225B68A1
:102490009A64D0F8A021D179D96401219964D279C4
:1024A000DA641A68D205FCD54FF0FF329A635A639A
:1024B0009A600C225A6070470346B3F89E31D0F8F8
:1024C000C8019B0703D50249024AFFF7A5BF704721
:1024D0000005FE00000101007047000070B509040E
:1024E000D0F8C861084D41F4000444F480743046CB
:1024F00029462246FFF790FF304629462246BDE88E
:102500007040FFF789BF00BF0005D00093682DE938
:10251000F041B3F50C7F8046144633D3566806F17C
:1025200010026260A3F11002A2606568AA0702D0DF
:1025300001356560F9E705F50772A3F50B73626075
:10254000A360636813F0030702D001336360F8E708
:102550002846224600F0E2FF39461022304601F0BC
:102560007DF82368B5602846C5F8C8617360FFF739
:102570008BFF28463946FFF7B1FFC8F800503846B0
:10258000BDE8F0810148BDE8F08100BF0A00040009
:1025900010B50A4AD0F8C841002908BF4FF480722C
:1025A00020460749FFF738FF636803225A641A6818
:1025B000D205FCD54FF480729A6010BD0001010075
:1025C0000005D80038B5054688780C46FFF714FF9B
:1025D000012102469140D5F8C8315B68586C01432F
:1025E00059649A64A288DA641A68D205FCD54FF45B
:1025F00080729A6038BD704710B504460846FFF7F0
:10260000FBFE010441F48001D4F8C80141F4A0614B
:102610004FF48072BDE81040FFF7FEBE10B50446CF
:102620000846FFF7E9FE010441F48001D4F8C8012F
:1026300041F4A061024ABDE81040FFF7EDBE00BFC3
:102640000001200010B504460846FFF7D5FE01043E
:1026500041F48001D4F8C80141F4A0614FF48072C4
:10266000BDE81040FFF7D8BE10B504460846FFF796
:10267000C3FE010441F48001D4F8C80141F4A06113
:10268000024ABDE81040FFF7C7BE00BF00010100CD
:1026900010B504460846FFF7AFFE010441F480017F
:1026A000D4F8C80141F4A0614FF48072BDE8104035
:1026B000FFF7B2BE043A38B51D46D0F8C8410D2A1E
:1026C00048D8DFE802F00E0E4747474747474747DD
:1026D00044074A0A0122002041E04FF40072002022
:1026E0003DE00846FFF788FE012303FA00F0236867
:1026F00015B11843206002E023EA00002060226840
:1027000023682168DB071B4B02F0020201EA030386
:1027100048BF42F004020BB142F020022168164B80
:102720000B400BB142F0400223681449194009B133
:1027300042F0080223681249194009B142F0100220
:10274000120420460F4942F48072FFF765FE002212
:10275000104604E000220C4801E0082200206168D5
:102760004B6815B11A434A6038BD23EA02024A6039
:1027700038BD00BF200882A0100441500882200804
:10278000044110040005F30001000400D0F8C80162
:1027900001F00F032DE9F0419B00456843F0010370
:1027A000AB622C6A2605FCD514F480681DD0C4F3F6
:1027B00009085FEA980C25D016460023AF6901335B
:1027C000634546F8047BF9D102EB830204F003046D
:1027D0005CB1AE691444002326FA03F502F8015BEC
:1027E000A24203F10803F7D1456841F248230B41A7
:1027F0000022DB07AA6202D4034AFFF718FE404614
:10280000BDE8F0814446E3E70005F2007047002090
:10281000704700207047FFF7B9BF0000D0F8C8012B
:102820002DE9F04101F00F044668A400DF1C44F0DC
:102830000204BF08B4629846736206D0002452F8BE
:10284000045B0134BC42F561F9D10023B362034A51
:10285000FFF7EDFD4046BDE8F08100BF0005FA003E
:102860002DE9F047D0F8C8918246D9F804201368C2
:1028700023F004019160516801EA030818F008048C
:1028800061D118F0040F2BD0166B3EB327460546D6
:102890000121A140314219D00F439163136898067A
:1028A000FCD5E30750693DD4002C00F09080AB6D5F
:1028B00063B1D9F80020114201D0C1066DD40222C3
:1028C0005046D5F8D8109847D9F804201F2C05D0C9
:1028D000B74204F1010405F10405D9D10423936042
:1028E00018F4007F0FD0DAF83C3063B14846404915
:1028F000FFF78AFD3F494846FFF7ABFDDAF83C3069
:1029000001465046984718F0010F09D0DAF83430E4
:102910000BB150469847D9F80C300133C9F80C3048
:10292000BDE8F087AB6D002BD0D0D9F80020114264
:1029300001D0C20629D403225046D5F8D8109847B2
:10294000D9F80420C2E748462B49FFF75DFD484609
:102950002A49FFF77EFDC606044626D4A50706D5FC
:10296000DAF838301BB1504604F00101984704F002
:102970000903092BD4D1640724D5DAF82C30002BB5
:10298000CED050469847BDE8F08705225046D5F88E
:10299000D8109847D9F8042098E704225046D5F873
:1029A000D8109847D9F8042090E75046FFF76CFDFF
:1029B000504600F09DFCDAF82830002BCED050466F
:1029C0009847CBE7DAF83030002BDAD1A8E7430795
:1029D0007FF56DAFDAF85830002B3FF479AF012264
:1029E0005046DAF8D8109847D9F8042070E700BFAD
:1029F0000005FB000002FB000005FE000002FE00D7
:102A000070B54D781646042D1A4618D003D84DB12E
:102A1000022D0DD027E0222D13D0232D13D0202DF1
:102A200021D115E00BB3036A1BB33168984770BD21
:102A3000DBB1846ADCB149883268A04770BD036BA2
:102A400002E0436B00E0836B9BB14988984770BDFF
:102A50002BB1C36B6BB100F11001984770BD00F151
:102A60001004346001E0044870BD104670BD20467B
:102A700070BD184670BD00BF02000400012A38B5C1
:102A80000446084602D0022A2AD04AE094F81432BA
:102A900003F07F02212A44D194F81822097E914242
:102AA00002D0417E91423CD104F5EA72DB09C4F8C0
:102AB000CC2104F5057104F5E67207D1456CA847F1
:102AC000054678BBB4F81A3263BB26E0056C04F502
:102AD000E873A847054628BB204600F098FB21E094
:102AE00094F8143203F07F03212B1AD194F8183292
:102AF0000A7E9A4202D04A7E9A4212D1D4F8CC2160
:102B0000B4F81A32456CD21AC4F8CC2104F5057118
:102B100004F5E672A847054620B9204600F0A0FB60
:102B200000E0014D284638BD0200040038B54D785C
:102B30000446032D09D0212D14D0012D19D1456A49
:102B40001DB111461A46A84738BDE56A1DB1204699
:102B50004988A84738BD10682946402200F07EFD0C
:102B6000284638BD00F11004146007221A800020A6
:102B700038BD014838BD00BF0200040008B5034657
:102B8000A120187101294FF0000059719871D87176
:102B9000187258729872D8720BD007D3202910D1AE
:102BA00002211A73120A99725A730AE00AB10122B9
:102BB0009A71197F1A1D18680823FFF72FFE00204D
:102BC00008BD014808BD00BF030001004C2070474C
:102BD0002DE9F0410C68074614F0030F0D469046AE
:102BE0008E684B6802D0472B40F28380483B04F14B
:102BF0004B0223F0030322F003022A606B6020469D
:102C00000021482200F02AFD3B4B276023643B4B08
:102C100063642B6A23626B6A6362AB6AA362EB6ACA
:102C2000E3622B6B23636B6B6363AB6BA363EB6B35
:102C3000E3637378042B02D03148BDE8F0817379E7
:102C4000022BF9D13379012BF6D8B3782376337977
:102C5000012B04D0EB685A78042AEDD115E03378C3
:102C60001E443278334616445A78052A05D1DA785C
:102C7000032AF6D19B78237701E0042AF1D1237F40
:102C8000002BE7D11F48BDE8F0815A790A2AD3D139
:102C90009A79002AD0D199786176197819441879EF
:102CA00082420FD20E78084631444678052E07D16D
:102CB000C678022E04D1807806064CBFA076E07656
:102CC0000132ECE7A37E002BDCD0E37E002BD9D0D1
:102CD000696C384621B90C49224600F08DFC04E0AD
:102CE000224600F089FC084B6B64C8F80040BDE840
:102CF000F0810648BDE8F0812D2B0100012A01007A
:102D000008000400090004007D2A01000A000400F4
:102D100090F8143213F01F0305D100F29D12C0F891
:102D2000CC21184670470148704700BF01000400DD
:102D30007047704790F8143203F01F03012B06D040
:102D4000022B15D0002B37D100F5CF720DE090F893
:102D50009D318BB390F8182290F89B319A422BD278
:102D60000023A0F8D43100F5EA72C0F8CC2121E0AC
:102D700090F818321A064BBF4FF48031012103F04E
:102D80000F0203F08F0201FA02F290F89D1109B9C7
:102D90001B0711D1D0F8B4311A420DD0D0F8B83198
:102DA0001A420CBF00230123A0F8D43100F5EA73C6
:102DB000C0F8CC3100207047004870470100040083
:102DC00010B590F8142212F01F0237D190F8173284
:102DD000022B09D0032B19D0012B2FD1D0F8A03111
:102DE000C0F8CC31122321E0D0F8AC3190F81612A3
:102DF0008A4205D01C780CB15C8823440132F7E785
:102E00001A78DAB1C0F8CC315B880FE0D0F8A43181
:102E100090F81642A24204D0197801B10B44013255
:102E2000F8E71A7852B1C0F8CC311B78B0F8D0214D
:102E30009A4288BFA0F8D031002010BD004810BDD4
:102E40000100040090F8143203F01F03012B0FD18E
:102E500090F89D3163B190F8183290F89B219A4216
:102E600006D903F5E0730344C0F8CC310020704765
:102E70000048704701000400F8B590F81432044689
:102E800013F01F030D4602D0022B1BD04AE0B0F80E
:102E90001632012B0ED1036C03B19847B4F89E3162
:102EA0002DB143F00203A4F89E310020F8BD23F0B9
:102EB0000203F8E7022B35D190F81912BDE8F8406B
:102EC000FFF7A5BC90F818321A0603F08F0105D55C
:102ED00003F00F024FF48036964001E001268E4049
:102EE00094F89D21F2B11B071CD0D4F8B4311E42D6
:102EF00018D0B4F81672AFB935B12046FFF7B4FB5D
:102F0000D4F8B8311E430AE0D4F8BC311E42CCD10B
:102F10002046FFF7BDFBD4F8B83123EA0606C4F813
:102F2000B861C2E70048F8BD01000400F8B590F8A8
:102F30001472044617F01F0740F0BE8090F8163256
:102F4000002B00F08480D0F8A851D0F8AC3190F874
:102F50009A21012A08BF1D462B78002B00F0A28081
:102F60006B78042B4ED0052B4ED0022B6CD16A7996
:102F700094F81632934243D184F89D312B7984F82A
:102F80009B310023E21801330021082B82F8C01185
:102F9000F8D1012694F899319E4217D20122B2400D
:102FA000D4F8B4311A4203D020463146FFF736FB3D
:102FB0004FF48032B240D4F8B4311A4204D02046E3
:102FC00046F08001FFF72AFB0136E3E74FF00113DB
:102FD000C4F8B4310023C4F8B831C4F8BC31204679
:102FE0000121FFF7D5FAEB7913F0400FB4F89E31C9
:102FF00014BF43F0010323F00103A4F89E3123E042
:103000006B8822E0EF781FE0F7B9AB781A0603F07F
:103010008F0606D503F00F034FF4803202FA03F354
:1030200001E00123B340D4F8B42120461343C4F88F
:10303000B4312946FFF7C6FA20463146FFF7DCFADD
:1030400020463146FFF7FEFA2B781D4484E780F8CE
:103050009D31012594F899319D4217D20122AA4051
:10306000D4F8B4311A4203D020462946FFF7D6FAE5
:103070004FF48032AA40D4F8B4311A4204D020462A
:1030800045F08001FFF7CAFA0135E3E700214FF070
:103090000113C4F8B431C4F8B811C4F8BC11204607
:1030A000FFF776FA94F89D0194F81622034B9042AC
:1030B00014BF18460020F8BD0048F8BD0100040008
:1030C0002DE9F74F90F81432044603F01F03012B4B
:1030D00040F0918090F89D31002B00F08C80D0F86A
:1030E000AC31D0F8A85190F89A210026012A08BFE7
:1030F0001D46434BB2463746B1462A78002A78D05F
:103100006A78042A0AD0052A1CD0022A6ED169796D
:1031100094F89D21914269D06A8868E095F8029000
:1031200094F81822EF7891455DD194F816229742D1
:1031300059D104EB090393F8C0A183F8C0710023AF
:103140001E4653E094F8182291454FD195F802801D
:1031500018F0800F08F08F0B06D008F00F084FF41E
:10316000803202FA08F803E04FF0010808FA0BF881
:1031700094F8162297421BD1D4F8B421204642EA93
:103180000802C4F8B421D4F8B821294622EA08027A
:10319000C4F8B8210193FFF715FA20465946FFF706
:1031A0002BFA20465946FFF74DFA46EA080618E082
:1031B00057451BD118EA060F17D1D4F8B4216FEA8E
:1031C000080802EA0802C4F8B421D4F8B82120465D
:1031D00002EA0802C4F8B82159460193FFF71EFA23
:1031E000BA46019B02E0002600E0BA462A78154460
:1031F00083E7184600E0024803B0BDE8F08F00BF47
:1032000001000400002100F50572FFF704BBB0F8CF
:10321000D03110B5402B28BF40238021D0F8CC21DD
:103220000446FFF7FBFAD4F8CC310344C4F8CC31A0
:10323000B4F8D031181AA4F8D00110BD10B500218F
:10324000D0F8CC210446FFF7A1FAD4F8CC310344DE
:10325000C4F8CC31B4F8D031181AA4F8D00110BD9C
:10326000002280211346FFF7D9BA002100F5EA7247
:10327000FFF78CBA10B580210446FFF7F5F900235B
:10328000A4F8D03110BD000090F8143213F01F03E1
:1032900007D190F8162262F07F0280F89C21184630
:1032A00070470148704700BF01000400F8B50446AC
:1032B0000F460546002694F898319E4213D2D5F861
:1032C00058316BB12046D5F878113A469847074BEC
:1032D000984205D0054638B12046FFF7CBFF03E002
:1032E00001360435E7E7014D2846F8BD0200040029
:1032F00001224FF00111A0F89E210022C0F8B41164
:1033000080F89C2180F89D21C0F8B821C0F8BC212C
:103310000E21FFF7CBBF000010B50446FFF772FF88
:1033200094F814122046C909FFF765F9B4F81A3267
:103330002046A4F8D0310121FFF7B8FF374B98425F
:103340006AD194F81432C3F3411313B1022B50D055
:103350005EE094F815320B2B5AD8DFE803F0060F25
:103360005913591E272931333C3EE36820469847BC
:1033700000284DD12046FFF74AFF4CE0636A204603
:10338000002102E0636A20460121984700283FD1CE
:103390002046FFF765FFE36C27E02046FFF774FF48
:1033A000002835D12046FFF75BFF34E02369DDE7D5
:1033B00020460021FFF758F90023A4F8D0312AE075
:1033C0006369D3E7A3692046984708BB2046FFF707
:1033D00047FF636C09E0E369C8E7236A2046984722
:1033E000B0B92046FFF73CFFA36CA3B12046984735
:1033F00011E0A36863B120460121984740B9B4F8B1
:103400001A32002BCED094F81432DB0903D0B1E786
:103410002046FFF72FFF002010BD00BF0200040070
:1034200038B590F814320446DB0923D1B0F8D03116
:1034300013B3FFF703FFB4F8D031EBB920460221F4
:10344000FFF734FF0F4B984218D194F81432C3F3AE
:103450004113022B0AD1A36843B1204601219847AA
:10346000054618B92046FFF7FBFE08E02046FFF7A7
:1034700001FF01E0FFF7F9FE002500E005462846C0
:1034800038BD00BF02000400013A10B50446062A08
:1034900040D8DFE802F0041D21063F3A3C000368F3
:1034A00017E00421FFF702FF1B4B984232D194F83A
:1034B00014122046C90904D1D4F8CC21B4F8D03173
:1034C00003E00021D4F8CC210B46FFF7A2F921E05C
:1034D0004368204698471DE090F81432DB0909D074
:1034E0000321FFF7E3FE0C4B984213D12046FFF770
:1034F0008EFE0FE090F89C110B060BD501F07F01BA
:1035000080F89C11FEF7EAFF04E0002100E0802132
:10351000FFF7BEF8002010BD0200040070B515468C
:103520000E464FF407720021044600F097F82A7BFC
:10353000254B84F89921A365C4F8D84012B1E365FE
:10354000C4F8DC40214B224A2360224B6360224BAB
:10355000E360224B6362224B2361224B6361224B67
:10356000A361224BE361224B2362EB6B002B08BF6C
:10357000134623651F4A2B6C002B08BF1346636557
:103580006B6A2364AB6AA3632B69A3626B69E36212
:10359000AB6923632B6A6363EB6AE3632B6B63643E
:1035A0006B6BA364AB6BE3643368C4F8A0317368DE
:1035B000C4F8A431B368C4F8A831F368C4F8AC31D6
:1035C0003369C4F8B03170BD89340100193301008A
:1035D000312D010021340100352D0100792E01002B
:1035E000C12D0100112D01002D2F0100452E0100DC
:1035F000C1300100332D010010B590F89831072B30
:103600000AD800EB83040133C4F85811C4F87821B8
:1036100080F89831002010BD004810BD0B00040058
:1036200010B590F89941B1EB440F06D800EB81003A
:103630008265C0F8D830002010BD014810BD00BF21
:103640000300010008B500200146024600F0EEFD2F
:10365000BDE80840FEF780B902F03ABC02F055BC64
:10366000F8B5304BC51C1C68AD081F4670B100266C
:1036700005E02368B3F1805F14D02646A468002CCF
:10368000F7D10C3001F0F6FC431C3FD10020F8BD0F
:103690001168B1F1805F09D1516892680B4403331E
:1036A0006360A260A2686368002AF1D1AB4208DBC4
:1036B000E91C994205DB20464FF0005340F80C3BD3
:1036C000F8BD05F10A018B4211D920464FF0005197
:1036D000656040F80C1B00EB85015B1BA160033BA0
:1036E0004FF0805440F825404B608A60F8BD002AB6
:1036F000C3D1A0EB830001F0BDFC0130C6D04FF078
:10370000005384E8280004F10C00F8BD4FF000538A
:1037100080E8280084600EB9386000E0B0600C30AA
:10372000F8BD00BF1808001018B14FF0805340F8E2
:103730000C3C704710B5FFF793FF044628B90449C5
:10374000172202F011FC02F0FCFB204610BD00BF66
:103750009461010010B5425C4318342A01DC00205A
:1037600010BD352A06D1194611F8012F302AFBD099
:10377000002AF4D05A1E144612F80119392902D130
:1037800030215170F7E7013121700278302AE6D0FC
:103790001A1A002A03DB13F801299A70F8E70120AE
:1037A00010BD10B500230A2290FBF2F2C2EB4214C6
:1037B0003030C2EB840400EB4400C854013B981D38
:1037C00001D01046EFE710BD0EB430B590B013AB8A
:1037D00053F8044B05460021282206A80593FFF75D
:1037E0003DFF0A2309936FF000430893059B009463
:1037F00001930F4B06A802934FF0FF326FF0004386
:10380000069500F065FD089B0446013B002B0893DC
:1038100003DB069B00221A7003E0002006A901F0DA
:103820006BFC204610B0BDE8304003B0704700BFCD
:1038300039380100000000002DE9F04FD1E90045C2
:103840009FB0CDE9064507999946C1F30A5140F268
:10385000FF73994280469246089132D10023D3707B
:10386000079A069CC2F3130323434FF06E031BD148
:10387000079D69228AF80130002D4FF066038AF80F
:1038800000208AF8023001DA8D4B15E019F0020FA2
:1038900006D18C4B8C4A19F0040F08BF134600E088
:1038A0008A4B289D2B6009E08AF8003061228AF853
:1038B0000230854B8AF80120289C2360032000F009
:1038C00081BC20F02003412B00F06F822046294666
:1038D0000022002302F05EFA28B105F10043012125
:1038E0001D460E9100E00E9020462946002200233E
:1038F00002F030FA002840F0378211AA204629460B
:1039000001F0FCFC119A40F22D1B0BFB02FBABF506
:10391000AB5B4FF47A73ABF11C0B9BFBF3FBCDE974
:103920001201C2EB0B020020694901F015FDBBF149
:10393000000FCDE91C0107DA5BA3D3E90023CBF12B
:103940000004CDE9182306E0624B4FF00002CDE9F8
:10395000182316D05C46E20709D5DDE91C01DDE934
:10396000182301F089FE012CCDE91C0109D0DDE905
:103970001801DDE9182301F07FFE6410CDE918017C
:10398000E9E7DDE91201DDE91C2301F00BFFCDE9D8
:103990001401DDE9140146A3D3E9002302F0FAF98A
:1039A00090B1DDE9140100224B4B01F065FECDE939
:1039B0001401DDE91C010022474B01F0F3FE0BF17D
:1039C000FF3BCDE91C01E4E7DDE914013AA3D3E9AB
:1039D000002302F04BFA90B1DDE9140100223E4BC6
:1039E00001F0E0FECDE91401DDE91C0100223A4BB3
:1039F00001F042FE0BF1010BCDE91C01E4E7DDE92A
:103A0000140102F055F9CBF1000313EA2B0338BF80
:103A10005B4684460F936046CDF814C002F092F9DD
:103A2000119AC2EB0B0201F097FC00220023BBF1BC
:103A3000000FCDE91401DDF814C0CDE916234DDAED
:103A400019A1D1E90001CDE91801CDE91A23DDE979
:103A50001867DDE91801002632463B4601F058FFA1
:103A6000DDE91A4502460B462046294602F064F875
:103A7000CDE91A01CDE91867DDE918010022154BDF
:103A800001F0FAFD02460B460020114901F040FF0B
:103A90000022104B01F086FEDDF814C0CDE91A01BA
:103AA00025E000BFAFF300809A9999999999C93F91
:103AB00000000000006AF8400000000080842E41F1
:103AC000DE610100AE610100AB610100AC6101008B
:103AD0000000F03F00001440000024409C494FF0DB
:103AE0000000CDE91801CDE91A2300F08A800F9C6F
:103AF0000994099DEB0749D5DDE91401DDE91A2395
:103B0000DDE91645CDF814C0CDE90A45DDE91845D3
:103B1000DDE91A67CDE90C4501F0AEFD32460446F9
:103B20000D463B46DDE90C0102F006F802460B4665
:103B3000DDE90A0101F0A0FD02460B4620462946B8
:103B400001F0FAFFCDE91601DDE91401DDE91823E2
:103B500001F092FDCDE91401DDE91467DDE91401FE
:103B6000002632463B4601F0D3FEDDE9164502460B
:103B70000B462046294601F0DFFF099DCDE91601DD
:103B8000012DCDE91467DDF814C03AD0DDE91A67DC
:103B9000DDE91801DDE91A4502460B46CDF814C0EF
:103BA00001F0CAFF22462B4601F0C6FF02460B4633
:103BB0003046394601F060FDCDE91A01DDE9180112
:103BC000DDE9182301F058FDCDE91801DDE918679A
:103BD000DDE91801002632463B4601F099FEDDE999
:103BE0001A4502460B462046294601F0A5FF099CCE
:103BF000CDE91A016410CDE918670994DDF814C005
:103C000077E7DDE91401DDE91223CDF814C002F0F5
:103C1000F9F8DDF814C010B90CF1FF3CFBE6DDE962
:103C20001201DDE91423CDF814C001F071FECDE9D5
:103C30001201DDE91201DDE9162301F069FECDE98B
:103C40001201DDE91201DDE91C2301F0ABFD3EA309
:103C5000D3E90023CDE91201DDE9120101F00CFDE9
:103C6000CDE91201DDE9120102F022F8DDE9124589
:103C7000064602F067F802460B462046294601F048
:103C800047FE31A3D3E9002301F0F6FCCDE9120190
:103C9000DDE9120102F00CF8DDF814C00446002C36
:103CA00005DA04F5742404F51074013EF7E7294B96
:103CB0009C4205DDA4F57424A4F510740136F6E7E2
:103CC000002E06DA06F5742606F510760CF1FF3C98
:103CD000F6E79E4206DDA6F57426A6F510760CF1F1
:103CE000010CF6E71C4B61469C4512DC1B4A1C4943
:103CF00096FBF2F094FBF2F201FB006601FB02443A
:103D00000A2303FB0C0C03FB06265C430BF1FF3B71
:103D10002FE0104B9C452CDD0A236FF009009CFB23
:103D2000F3FC00FB0C110F4A0BF1010B02FB0161CC
:103D300091FBF3F600FB061102FB0144053494FBF2
:103D4000F3F416E0AFF300800000000080842E4101
:103D5000000014403F420F009F860100A086010032
:103D60006079FEFF40420F0000246FF0040B2646EE
:103D7000A44630255146604601F8065BFFF711FD69
:103D800030460AF10C01FFF70CFD20460AF1120142
:103D9000FFF707FD8AF813500E9D00230BF1050B6A
:103DA0008AF8143045EA8B0B01E04FF0000B1BF052
:103DB000010F03D0B14B289C23600CE019F0020FD7
:103DC00006D1AF4BAF4A19F0040F08BF134600E00D
:103DD000AD4B289D2B60299D2BF0010B0423B8F1DE
:103DE000610F9BFBF3FB2C6815D009DCB8F1450F84
:103DF0006FD0B8F1470F51D0B8F1410F4CD10AE064
:103E0000B8F1660F00F0F180B8F1670F46D0B8F155
:103E1000650F41D15DE0069D0799002242EA050049
:103E2000089DC1F31303194615B1A5F2FF3304E051
:103E3000964B50EA010208BF00238CB919F0080F15
:103E40000ED1089C9249002C924C14BF3122302292
:103E50005046B8F1610F18BF2146FFF7B5FC11E0DD
:103E6000089DCDE9000102938B498C4B002D14BFB6
:103E7000312230225046B8F1610F08BF194623465F
:103E8000FFF7A2FC7F4B7D4A0799289C33EA210368
:103E900028BF1346236095E14FF06708002C49F4D2
:103EA000006902DC299C01232360299D5046296872
:103EB0001129D4BF01311221FFF74CFC299C834406
:103EC00023689B45C0F28980299D013B2B60A8F1A6
:103ED0000208299D2B68112B04DD2B9C113B2360CC
:103EE00011232B60299D2C6819F4006504F102044C
:103EF00004D150462146FFF72DFC83449AF8013047
:103F000029998AF800300B6823B940F6080309EABA
:103F100003031BB12E238AF8013000E001242B9A01
:103F20001368002B03DD3E230AF80430013485B109
:103F300019F0080F0DD10AEB0402CAEB020412F8C3
:103F4000013D302BF9D03E2BF7D02E2B08BF04F1CA
:103F5000FF34BBF1000F04F101020AF8048004F100
:103F6000020304DACBF1000B1C462D2101E01C46B4
:103F70002B21BBF57A7F0AF802100BDB4FF47A7223
:103F80009BFBF2F202F130010AF8031044495C1C79
:103F900001FB02BBBBF1630F0BDD64239BFBF3F35F
:103FA00003F130020AF804206FF0630202FB03BB46
:103FB00001340A239BFBF3F3C3EB431103F13002FB
:103FC0000BF1300BC3EB81030AF804200BEB430326
:103FD0000AEB04025370A01CF4E01BF1040FFFF67F
:103FE00073AF6FEA0B0213442360299CBBF1000FEF
:103FF000236809F4006567DACBF100065A1C964283
:104000000ADD30238AF800302E238AF80130236835
:104010002B9C2360022452E05B449C1C122C03DD89
:104020002B9C113B2360132465B950462146FFF7B2
:1040300091FB38B17FEA0B0604F1010402D19AF832
:1040400001300DE0012E0AEB04030FD1CAEB03028D
:10405000002A03DD13F801299A70F7E701343023B1
:104060008AF800302E238AF8013028E0CAEB0302D8
:10407000002A17DD13F80129DA70F7E7DE61010085
:10408000AE610100AB610100AC61010001FCFFFF0A
:10409000B0610100B8610100CF610100C0610100A1
:1040A00018FCFFFF30238AF800302A992E238AF863
:1040B0000130013E3C238AF8023002340E602B9A14
:1040C0001368002B27DC62E00BEB0306B41C122CF8
:1040D00046DD45B950461321FFF73CFB18B10BF103
:1040E000010B142400E01324621E9345534617DA93
:1040F0005A7803F8012BCAEB03025A45F8DD0AEBA4
:104100000B032E2229995A700B682B9A5B44113BA2
:104110001360002B3BD03E230AF80430013436E014
:10412000597803F8011BCAEB03019142F8DB0AEB53
:1041300004033C222A99C4EB0B0B03F8012C0BF16E
:1041400002030B602E2229990AF804200A68631CD6
:10415000E2B12B9902340A603E220AF8032016E0ED
:104160003DB950462146FFF7F5FA10B10BF1010BAE
:10417000F41C53465A7803F8012BCAEB03025A4544
:10418000F8DD0AEB0B032E225A7000E01C4685B1C5
:1041900019F0080F15D10AEB0402CAEB020412F859
:1041A000013D302BF9D03E2BF7D02E2B09D1013C0D
:1041B00007E0299D2B6823B919F0080F01D1601E73
:1041C00000E020461FB0BDE8F08F00BFAFF30080D5
:1041D000F0B58FB0144605460F462822002104A8EA
:1041E0001E46FFF73BFA0A2307936FF0004306933E
:1041F0000D4B8DE8500002937A1E002304A804950D
:1042000000F066F8069B0446013B002B069303DB97
:10421000049B00221A7003E0002004A900F06CFF48
:1042200020460FB0F0BD00BF3938010010B50021A5
:104230004FF4A0722248FFF711FAC020FFF77AFA74
:10424000204C0021C0222060FFF708FA20680023DC
:104250001B4C2822182102FB034201FB03010133FE
:10426000082B5162F4D122461749002000F0E5FFE7
:104270004FF48053204600214FF4806200F078FE16
:1042800004F128021149012000F0D7FF4FF48053B8
:1042900004F1280000214FF4806200F069FE04F16F
:1042A00050020A49022000F0C8FF04F1500000212A
:1042B0004FF480624FF48053BDE8104000F058BEC8
:1042C000D8060010D4060010E0610100E261010090
:1042D0002DE9F04FB3B0CDE90E233D9D3C9B064642
:1042E000002718785C1C002800F03E86252802D1A3
:1042F0004FF0000921E03A46FB17DDE90EAB5245CD
:1043000073EB0B0B07F1010980F21C86B368013BCC
:10431000002BB36005DB33685A1C3260187000F064
:1043200011BE314600F0E8FE00F00CBE0CD9BAF127
:104330002D0F12D149F001094446A04618F801ABEF
:10434000BAF12B0FF2D10EE0BAF1200F0ED0BAF174
:10435000230F0ED149F00809EEE7BAF1300F08D16A
:1043600049F40079E8E749F00209E5E749F0040972
:10437000E2E7BAF12A0F0CD12B682A1D002BBCBF33
:104380005B4289F0010904F1020894F801A0154686
:1043900006E00023AAF13002D1B2092940F2D68505
:1043A000BAF12E0F23EAE37B1CD198F800A0BAF1F2
:1043B0002A0F07D1D5F800C098F801A0043508F1FC
:1043C000020809E008F101084FF0000CAAF13003DF
:1043D000DAB2092A40F2C185BCF1000F02DB49F0D4
:1043E000100901E04FF0000CBAF16C0F0FD198F8F2
:1043F00000A0BAF16C0F06D198F801A049F060094D
:1044000008F1020803E008F1010849F02009BAF1B7
:104410004C0F02D0BAF1710F04D198F800A049F006
:10442000600921E0BAF1680F10D198F800A0BAF144
:10443000680F06D198F801A049F4807908F10208C4
:1044400014E008F1010849F080090FE0BAF16A0FA1
:1044500002D149F0400905E0BAF17A0F02D0BAF171
:10446000740F03D198F800A008F10108BAF1670FA2
:1044700025DCBAF1650F80F27282BAF1470F00F0C5
:104480006E820CDCBAF1410F00F06282BAF1450F86
:1044900000F06582BAF1000F00F0B28032E0BAF1AC
:1044A000610F00F0558204DCBAF1580F00F07A81F8
:1044B00028E0BAF1630F1ED0BAF1640F0CE0BAF134
:1044C000700F00F0BD810ADCBAF16E0F00F09D8024
:1044D00000F3BD81BAF1690F00F0F88112E0BAF182
:1044E000750F00F0D281BAF1780F00F08281BAF135
:1044F000730F07D1A8E005F1040CCDF828C0D5F85A
:1045000000A000E00A9519F001020BF1FF330B92B5
:104510002BD119F4007F0CBF4FF020094FF0300968
:1045200000240025ABF102031B1B07EB04021BD484
:10453000DDE90E01E21945EBE773824273EB0101FD
:104540000EDAB368013B002BB36005DB33685A1CFD
:10455000326083F8009003E04846314600F0CCFD1D
:10456000013445F10005DDE717463846F917DDE966
:104570000E45A04271EB050507F1010910DAB2689A
:10458000013A002AB26005DB3268511C316082F8C2
:1045900000A005E050463146099300F0ADFD099BAF
:1045A0000B9A002A00F0CA8400240025E243DA4274
:1045B0001ED4DDE90EAB14EB090045EBE971504563
:1045C00071EB0B0B10DAB268013A002AB26005DB1E
:1045D0003268511C31602021117005E020203146E5
:1045E000099300F089FD099B013445F10005DDE7E1
:1045F000002BACBF09EB030709F1000700F09FBCDB
:1046000008F1FF380A9500F09ABC2B1D19F0400FF5
:104610000A9306D029683A46FB17C1E9002300F047
:104620008EBC19F0200F2B680BD119F4807F02D0BB
:104630001F7000F084BC19F0800F02D01F8000F0C2
:104640007EBC1F6000F07BBCD5F800A0AA4B2C1DDF
:10465000BAF1000F08BF9A465046CDF824C00A941C
:1046600000F0E2FC19F0100F0346DDF824C002D080
:104670006345A8BF634619F00105C3EB0B0B0B950F
:1046800037D119F4007F0CBF4FF020094FF03009EB
:1046900000240025CDE90645069D0BF1FF32511B94
:1046A000002921DBDDE90645DDE90E01E41945EBD2
:1046B000E775844275EB010110DAB268013A002A0D
:1046C000B26005DB3268511C316082F8009005E071
:1046D00048463146099300F00FFD099BDDE9064588
:1046E000013445F10005D5E72BEAEB7B5F44CBEBCA
:1046F000020B00240025CDE90645069DAB4223DDD3
:10470000DDE90645DDE90E01E41945EBE775844274
:1047100075EB010112DAB268013AB260002A069A1A
:10472000524405DB3168481C306012780A7005E09D
:1047300010783146099300F0DFFC099BDDE906455E
:10474000013445F10005D6E70B9A002BA8BFFF18EE
:10475000002A00F0F48300240025E34313EB0B0F41
:104760001BD4DDE90E01E21945EBE773824273EBDE
:1047700001010EDAB368013B002BB36005DB33683F
:104780005A1C326020221A7003E02020314600F0CB
:10479000B3FC013445F10005DFE7BBF1000FA8BF12
:1047A0005F44CCE319F0400F08D0073525F007052A
:1047B00005F108040A94D5E9002303E02C1D2A68BA
:1047C0000A94002319F0800F01D092B203E019F48B
:1047D000807F01D0D2B200234849494819F0080F20
:1047E00018BF084619F0100F00F0D08029F40079A6
:1047F000CCE019F0400F08D0073525F0070505F18A
:1048000008040A94D5E9002303E02C1D2A680A94C1
:10481000002319F0800F01D092B203E019F4807FD9
:1048200001D0D2B200233749354819F0080F18BF1C
:10483000084619F0100F00F0AB8029F40079A7E0CA
:104840002C1D0A942A6800232F492E48A3E019F052
:10485000400F08D0073525F0070505F108040A9434
:10486000D5E9002303E02C1D2A680A94002319F0DF
:10487000800F01D092B203E019F4807F01D0D2B250
:10488000002319F0080F214956E019F0400F08D015
:10489000073525F0070505F108040A94D5E900233A
:1048A00003E02C1D2A680A94002319F0800F01D020
:1048B00092B203E019F4807F01D0D2B2002319F044
:1048C000100167D029F40079002163E019F0400F4E
:1048D00008D0073525F0070505F108040A94D5E945
:1048E000002303E02A682C1D0A94D31719F0800FC7
:1048F0000ED012B210E000BFE4610100EB610100D4
:10490000AB610100EE61010004620100F161010090
:1049100019F4807F01D052B2D317002A73F1000539
:1049200004DA524263EB4303BA480AE019F0020F7B
:1049300006D1B94919F0040FB84818BF084600E07D
:10494000B74819F0100126D029F40079002122E09F
:1049500019F0100F04BF49F010094FF00D0C073586
:1049600025F0070519F0100F05F108044FF00001BC
:10497000D5E9002308BF4FF0060CCDE928230A949F
:1049800049F4806900220023084604E0A54902E0BA
:10499000A54900E0A148DDE90E45E41B65EBE7759C
:1049A000CDE90C4525904FF0FF3026902790CDF8AB
:1049B00090C0002055252AAC055501302028F9D19A
:1049C00019F4826F04BF01202490BAF1670F1BDC39
:1049D000BAF1650F80F2D580BAF1470F00F0D180AF
:1049E00008DCBAF1410F00F0CC80BAF1450F40F07D
:1049F000D880C6E0BAF1610F00F0C380BAF1640F4D
:104A000017D0BAF1580F11E0BAF1700F14D008DCCA
:104A1000BAF1690F0DD0BAF16F0F40F0C2800021DA
:104A200022E0BAF1750F04D0BAF1780F40F0B980E6
:104A300002E04FF0000E2EE0002052EA03040B903B
:104A400000F0B18002F00F040D5D2AAC0555150988
:104A500045EA037A4FEA131CCDF868A0CDF86CC084
:104A6000DDE91A230130E8E752EA03000B9100F078
:104A70009A80D50802F0070445EA437A4FEAD30C3E
:104A800030342AA8CDF870A0CDF874C00C54DDE9FC
:104A90001C230131E8E752EA0305CDF82CE000F0D1
:104AA0008280910841EA83749D0859084FEA3200D8
:104AB0001E941F95DDE91E45001941EB050105090E
:104AC00045EA017A4FEA111CCDF848A0CDF84CC058
:104AD000DDE91245001941EB0501050A45EA016AC5
:104AE0004FEA112CCDF850A0CDF854C0DDE91445A3
:104AF000001941EB0501050C45EA014A4FEA114C4A
:104B0000CDF858A0CDF85CC0DDE91645001941EBA1
:104B10000501002520912195DDE92045001941EB93
:104B20000501C508901D4FEAD10C45EA417A43F1D1
:104B300000010A23AAFB034503FB0C55001B61EB94
:104B40000501CDF844C04FEA101C4CEA01740D0970
:104B500018941995CDF840A0DDE91801DDE910455C
:104B6000001900EB800302F13002A2EB430241EB9B
:104B700005012AAB0EF803200EF1010E02460B468A
:104B800089E725AB009324AB019326AB029327ABB7
:104B90000393504628A92AAA4B463E9CA0470B9057
:104BA00001E000250B9519F4806223920FD00023B9
:104BB0002493269B002BC4BF03F1FF332493279B30
:104BC000002B0ADD249A013B1A44249205E0249B21
:104BD0000B9C1B1B48BF00232493249B0B9C2598F4
:104BE0001C4400F021FA40F20123C4EB0B0B09F046
:104BF000010509EA0303C0EB0B0B229513B900244E
:104C000000251CE04FF0000ACDF814A00024002578
:104C100041E000BFDE610100AE610100AB61010057
:104C2000AC610100F361010004620100DDE90C01E7
:104C3000844275EB010108DB013445F100050BF1FD
:104C4000FF331A1B002AF1DA0FE0B368013B002B97
:104C5000B36005DB33685A1C326020221A70EBE720
:104C60003146202000F048FAE6E72BEAEB7BCDF84E
:104C700014B0CBEB030BC9E7DDF814A0DDE90C01A0
:104C800014EB0A0245EBEA73824273EB01010FDB7E
:104C9000013445F100052599059A481C259091F8A5
:104CA00000C0224408929246BCF1000FE4D10FE00C
:104CB000B368013B002BB36005DB3368591C3160DE
:104CC00083F800C0E4E76046314600F015FADFE7FC
:104CD000229B8BBB19F4007F0CBF4FF020094FF0D3
:104CE0003009002400250BF1FF32111B00291CDBC9
:104CF000089AA01845EBE271DDE90C23904271EBB4
:104D000003030EDAB268013A002AB26005DB3268AA
:104D1000511C316082F8009003E04846314600F0B3
:104D2000EBF9013445F10005DDE7DDF820A02BEAC1
:104D3000EB7BDA44CBEB020B239C14B90024002557
:104D400088E04FF00009DDF82CC0E14580F2CB800F
:104D50002AAB19F803003C2804D03E284DD100248A
:104D6000002532E000240025269A0AEB040C013AC3
:104D7000002A26925DDBDDE90C0114EB0A0245EB0B
:104D8000EA73824273EB01010EDAB368013B002B38
:104D9000B36005DB33685A1C326030221A7003E0BE
:104DA0003020314600F0A8F9013445F10005DBE779
:104DB00014EB0A0245EBEA73DDE90C01824273EB66
:104DC00001010ADB013445F10005279A0AEB040CC6
:104DD000013A002A2792EBDA2BE0B368013B002B63
:104DE000B36005DB33685A1C326030221A70E9E781
:104DF0003146302000F080F9E4E752464FEAEA738A
:104E0000DDE90C45A24273EB05050AF1010C10DA4D
:104E1000B268013A002AB26004DB3268511C31608A
:104E2000107006E03146CDF824C000F065F9DDF8D9
:104E300024C009F10109E24685E714EB0A0245EBBB
:104E4000EA73DDE90C01824273EB01010ADB0134F4
:104E500045F10005249B0AEB0409013B002B249338
:104E6000EBDA0FE0B368013B002BB36005DB33687E
:104E70005A1C326030221A70E9E73146302000F0C7
:104E80003BF9E4E70B9A0DF1A80A924400240025AF
:104E90000B9A131B002B20DDDDE90C0114EB09023A
:104EA00045EBE973824273EB010110DAB368013B11
:104EB000002BB36006DB33685A1C32601AF8012CF1
:104EC0001A7004E01AF8010C314600F015F90134AB
:104ED0000AF1FF3A45F10005DAE7002AACBF09EB19
:104EE000020A09F1000A229B33B300240025E343A0
:104EF00013EB0B0F1CD4DDE90C0114EB0A0245EB9C
:104F0000EA73824273EB01010EDAB368013B002BB6
:104F1000B36005DB33685A1C326020221A7003E04C
:104F20002020314600F0E8F8013445F10005DEE7C5
:104F3000BBF1000FA8BFDA44574400E04F460A9D7A
:104F4000B94644464F462346FFF7CBB90A2101FB39
:104F5000032318F801ABFFF71DBA0A2202FB0C3C31
:104F600018F801ABFFF732BA384633B0BDE8F08F1E
:104F700070B5C468A50717D0B2F5007F09D0B2F5A7
:104F8000806F03D0B2F5807F0ED102E0416A012329
:104F900003E0064D5E1EAE4206D822430161016069
:104FA000C361C260002070BD012070BDFEFFFF0024
:104FB0000B4930B50B4B0C680B4D1A6855F82400A3
:104FC000013C45F822000C60013A14B936240C600B
:104FD00001E002B936221A6020F0004030BD00BF67
:104FE0009C030010A0030010C0020010094B172200
:104FF0001A60094B36221A600023084A00EB104160
:105000009950074A043342430648DC2B1044F4D13C
:10501000704700BF9C030010A0030010C0020010E6
:10502000CD0D0100E119D66610B5411C830705D0EE
:1050300010F8013B002BF9D1401A10BD024650F880
:10504000043BA3F1013424EA030414F0803FF5D0BB
:1050500013F0FF0F0AD013F47F4F05D013F47F0F26
:1050600014BF0346D31C02E0931C00E0531C581AE3
:1050700010BD000038B50C4B1A680AB90B4A1A600B
:10508000C51C1C6825F003052544284600F0C6FA17
:1050900018B9054B20461D6038BD054B0C221A601F
:1050A0004FF0FF3038BD00BF1C0800102008001072
:1050B000DC030010C368426A23F0200310B5526875
:1050C000C3608369044693420FD000F0EBF8E368B5
:1050D000626A23F4405323F0100343F01003E360AB
:1050E0005368A361236993602360E36823F48043DA
:1050F00023F04003E36010BDCB6870B523F40022B9
:105100009B0606460C46CA6002D50846FFF7D2FF4A
:10511000A168E3684D1C0DDA98050BD443F4903375
:10512000E3606FF001022368521AA2605A1C2260E9
:105130001E7056E041F28A021A40022A1D4605D02E
:10514000002243F08003A260E36052E04AF21001C3
:105150001940B1F5004F0AD10021204600F0A8F90E
:10516000E368990602D52046FFF7A4FFE56845F4F9
:10517000903315F4706FE3601CD1606900F0E8FEB5
:1051800050B16A0508D5636A236123600123E36196
:1051900045F49233E3600DE04FF48050FEF7CAFA15
:1051A0004FF48053E268E36145F494331A4320617D
:1051B0002060E26013F4106F226825691CD0636AD6
:1051C000996891422CBFC5EB0101C5EB020151B9B1
:1051D000636A6A1C9A602260E269511EA160DA600B
:1051E0002E70F0B270BD2846224600F0DBF8002891
:1051F000EED04FF0FF3070BD511CF6B2216016703A
:10520000626A2168906888422CBFC5EB0001C5EB3B
:105210000101E0695B05D06003D40A2E01D0814210
:1052200009DB0023956028462560A360224600F034
:10523000B9F80028DDD1304670BDF8B50E460746F6
:105240001046154600F0E6F83378722B07D0772B1E
:1052500008D0612B23D1082348F2020404E0002384
:10526000012401E00423022416F8012F2B2A06D082
:10527000622A09D144F0040443F00103F4E744F046
:10528000030443F00203EFE71B07EC606F6128465D
:1052900007D50021022200F00BF92846F8BD0020B6
:1052A000F8BDF8BD38B50268436A04460569C068B0
:1052B000996820F40023E36000F08203022B02D0FF
:1052C0004FF0FF3038BD10F4803016D0914238BF17
:1052D0001146A94209D1636A00209D60E3682560F8
:1052E00023F48033A060E36038BD2846491B224682
:1052F00000F058F80028EED0E2E738BDF8B51746C0
:105300000023002204460D4600F024FD20B10023B6
:105310003B6000200021F8BDC5F30A532046294612
:10532000A3F2FE3493B9C5F313060546EB0F43EA27
:1053300046033203C3F313034FEA450503D563F372
:105340001301284602E0013C1E46EFE740F2FE331F
:105350003C6063F31E51F8BD70B500231646002271
:1053600004460D4600F0F6FC10B10020002170BD8F
:10537000C5F30A52324440F2FE739A42204629464F
:1053800006DD064B22221A60054BD3E9000170BDF1
:10539000002AEADD62F31E5170BD00BFDC0300107D
:1053A000186201002DE9F041D5688046EB020E46F7
:1053B0001446576905D5384600F0C7FD45F010057D
:1053C000A061134B2B4053B13846A16900F0C6FDD4
:1053D000002814DB25F4003525F01005E560324681
:1053E0003846414600F0C0FD801B18BF6FF000003A
:1053F00020F00043F61AA3693344A36128B1E3689F
:105400004FF0FF3043F08003E360BDE8F08100BF60
:10541000100002002DE9F04100F10C0595E8A00113
:10542000A90788B00446466A25D02A0716D400F09A
:1054300027F8404600F086FD2B0502D53846FEF7DA
:1054400073F9AD0DAD0515F1A54F07D16846216A79
:10545000202200F086FD684600F0D6F800211822D0
:10546000606AFEF7FBF8204600212822FEF7F6F8D6
:105470006662002001E04FF0FF3008B0BDE8F08127
:1054800038B5044618B1BDE8384000F0D3B8054639
:105490000648204400F0CEF82834002818BF4FF00A
:1054A000FF35B4F5A07FF3D1284638BDD8060010EB
:1054B0002DE9F843C668404B044633400D469046FC
:1054C000D0F81490002B72D0484600F041FD0746FA
:1054D00000286CD1B8F1010F06D0B8F1020F08D046
:1054E000B8F1000F63D126E0204600F067F80544CC
:1054F00021E0484600F029FDB0F1000CE06804DA34
:1055000040F08000E060012752E0626A2368916801
:10551000D4F8188099422CBF884498442169C1EB83
:105520000803810603D552689342B8BF134663450A
:10553000ACBFED186544002D39DB16F4005F636ADB
:1055400004D022689968914238BF9A60A269954256
:1055500011DB21689868884238BF0846216900EB52
:10556000020CC1EB0C0C654505DCD3F80CC002EB5A
:105570000C08454506DB0022A260626046F020066A
:105580005D600EE0AD1AB20744BFCCEB0503A3602B
:10559000F30702D5081A284460600D44256026F000
:1055A000200626F4032626F04006E66000E00227E7
:1055B0003846BDE8F88300BF03001000C3689A07AF
:1055C00005D1104B21221A604FF0FF30704713F4C1
:1055D000002F03F020030AD013B1436A586804E097
:1055E0000268836901691344581A0138704713B17E
:1055F000436A586870470268836901691344581AFE
:10560000704700BFDC03001010B50446FFF70CFD27
:1056100001462046BDE8104000F09DBC044B23B17C
:10562000984234BF0020012070471846704700BFE1
:1056300000000000C36870B513F00302044619D0DF
:105640009B0604D5436A5D68FFF734FD04E0836977
:1056500005681D440369ED1AE368204623F44053AE
:10566000E360FFF71FFE0022064629462046FFF7AB
:105670001FFF3246104670BD2DE9F00FC1F30A5CE2
:1056800082B00D461F46BCF1000F57D040F2FF79A3
:10569000CC4553D0C3F30A58B8F1000F4ED0C845DB
:1056A0004CD0C1F31306D102540DA1FB002346F4E4
:1056B0008016A6FB01ABCDE90023DDF8049044EA97
:1056C000C7241AEB09024FF0000344F0004443F1F1
:1056D0000003E0FB042300211BEB030041F1000168
:1056E000E6FB040187EA0503009DB1F5801FC44471
:1056F00003F0004442EA95024AD200184FEAD273FE
:1057000041EB0101ACF5806C18435200D30FC01877
:1057100041F1000140F2FD73B2F1004F054608BFB0
:1057200020F001059C4536D9BCF1000FA4BF44F020
:10573000FF4444F4E004214600201DE06B0087EAAA
:10574000050213F5001F02F0004212D2790011F594
:10575000001F15D311F5001F0CD85B0D5B054BB175
:10576000490D490531B142F0FF4242F4E001002009
:1057700002E00BD00A49002002B0BDE8F00F7047EC
:105780001146002002B0BDE8F00F70477900E1E754
:10579000ACF2FF3CBAE70C4304EB0C512846EBE7B4
:1057A0000000F87F2DE9F00FC1F30A5C82B00D46CE
:1057B0001F46BCF1000F5AD040F2FF7AD44556D0B4
:1057C000C3F30A58B8F1000F51D0D0454FD0410D66
:1057D00041EAC521530D4FEAC02B41F0004143EA95
:1057E000C723CDF800B0019143F0004B4FEAC22A25
:1057F000DDE90001594508BF5045C8EB0C0C87EAAC
:10580000050468D20CF2FD3C5FEA5B0B4FEA3A0AF2
:105810003423002200E0013B594508BF50454FEAC0
:10582000420205D3B0EB0A0061EB0B0142F001022A
:10583000001841EB0101202B65D0002BEBD159451D
:1058400008BF504503D3013208BF09F1010940F2F6
:10585000FD718C4504F0004343D9BCF1000FA4BF97
:1058600043F0FF4343F4E0031946002026E06B00B9
:1058700013F5001F20D87A0012F5001F1CD847EA44
:105880000501C1F30A514FEA415CD9B15C0D87EAC9
:105890000501640501F00045D4B1540D640564B3FD
:1058A00012F5001F23D113F5001F4FF000001ABF9F
:1058B00029460020154901E01449002002B0BDE846
:1058C000F00F70471149604602B0BDE8F00F704715
:1058D00029462046F2E749084FEA30000CF2FE3C28
:1058E00092E703EB0C5303EB09011046E6E745F0A2
:1058F000FF4545F4E0010020E0E745F0FF4545F4B1
:10590000E0012046DAE7914685E700BF0000F87F16
:105910002DE9F00F804682B08946CDE9008993EAEF
:10592000010B1D460F46994692468846DDF800C099
:1059300000F1EA8099427CD20BF10049DDF800A029
:1059400089EA0708944689EA05094FEA185222F4C1
:10595000006140F2FF708142A2EB195300F0A58074
:105960008B4200F0AF80C8F31308C9F313091F2B53
:1059700048F4801849F4801161D8C3F1200001FA7D
:1059800000F52AFA03F421FA03F32C43C4EB0C04C8
:10599000A445C3EB080838BF08F1FF381AFA00F134
:1059A00040F09C80A44618F4C01F65D14FEADC701B
:1059B000C90F41EA4C0C40EA48085CEA080300F0D1
:1059C00087805FEA5831A2F102030AD14FEA1C61D5
:1059D00041EA08285FEA5831A3F108034FEA0C2C8A
:1059E000F4D05FEA584106D14FEA1C71043B41EA0A
:1059F00008184FEA0C1C5FEAD84106D14FEA9C71A7
:105A0000023B41EA88084FEA8C0C5FEA185106D144
:105A10004FEADC71013B41EA48084FEA4C0CD20ADC
:105A2000B2EBD32F07BF08EB03516046D10700202C
:105A300037E00099914288D89F4286D17CE7352B88
:105A40001AD8A3F1200421FA04F0C3F140032AFA82
:105A500004F49940C0EB0C00844538BF08F1FF38CE
:105A60005FEA0A6A44EA010159D041F0FF01494264
:105A700000F1FF3C002859D018F4801F0AD1013AE8
:105A8000530549D04FEADC70CB0F40EA480843EA9F
:105A90004C0C4900002928F4801828DB08EB02513F
:105AA000604602B0BDE8F00F70475FEA08324FF081
:105AB000000027D1002B36D04146604602B0BDE839
:105AC000F00F704740F2FE729342EED8002BF3D1F4
:105AD0001946184602B0BDE8F00F7047494204F17C
